:020000040800F2
:1000000000500020210200081123000815230008D9
:10001000192300081D230008212300080000000008
:100020000000000000000000000000002523000880
:1000300029230008000000002D23000831230008B8
:10004000311E0008311E0008311E0008311E000854
:10005000311E0008311E0008311E0008311E000844
:10006000311E0008311E0008311E0008311E000834
:10007000311E0008311E0008311E0008311E000824
:10008000311E0008311E0008311E0008311E000814
:100090003D230008311E0008311E0008311E0008F3
:1000A000311E0008311E0008311E0008311E0008F4
:1000B000311E0008311E0008311E0008311E0008E4
:1000C000311E0008311E0008311E0008311E0008D4
:1000D000311E0008311E0008311E0008311E0008C4
:1000E000311E0008311E0008311E0008000000000B
:1000F0000000000000000000000000000000000000
:1001000000000000000000005FF808F100B583B0B7
:1001100001F0F6FD304B314A1360314A1360314B28
:10012000314A03E011681960043304322F498B42CD
:10013000F8D32A4B1A682E4B9A4204D1284B1A68DE
:100140002C4B9A4200D0FEE7234B2B4A13602B4ADC
:1001500013602B4B02E000221A600433294A9342B9
:10016000F9D3254B1B6813B9244B1B6803B1FEE779
:1001700001F0D2FD01A8694601F06CFD224B234D30
:10018000ED1AAD10002404E01F4B53F824309847BB
:100190000134A542F8DC1E4B1E4DED1AAD100024B3
:1001A00004E01B4B53F8243098470134A542F8DC97
:1001B0000198009901F076FF0546174B174CE41A99
:1001C000A41004E0013C144B53F824309847002C51
:1001D000F8DC284601F01AFDBABADECA0000002099
:1001E0007400002000000020182E00087800002075
:1001F000785634123254769878000020A0010020FE
:1002000078000020A4010020740300087403000893
:1002100074030008740300087403000874030008E2
:1002200008B5FFF773FF00BF00BEFEE71EF0040F26
:100230000CBFEFF30880EFF309807146404A104786
:100240002DE9F04383B005468946124C676BA66BD7
:10025000D4F82880236B13F0020F0BD0E36A002B35
:1002600008DA4BF6AB6101F0D3FD18B14FF0004254
:10027000E2620CE0084801F0F5FCCDF80090284659
:1002800041463A46334601F04BFD00BEFEE703B05F
:10029000BDE8F08300ED00E08C2D000800BEFEE715
:1002A0001EF0040F0CBFEFF30880EFF309807146D6
:1002B000244A10472DE9F04182B007468846084C91
:1002C000666BA56BA46A074801F0CCFCCDF80080F2
:1002D0003846214632462B4601F022FD00BEFEE79D
:1002E00000ED00E09C2D00081EF0040F0CBFEFF3A2
:1002F0000880EFF309807146134A10472DE9F04159
:1003000082B007468846084C666BA56BA46A07480E
:1003100001F0A8FCCDF800803846214632462B4635
:1003200001F0FEFC00BEFEE700ED00E0A82D000895
:1003300000BEFEE700BEFEE700BEFEE7704700001D
:0C03400041020008B5020008FD020008A0
:10034C00182E00080000002078000020182E00084D
:10035C00000000000000000078000020A401002034
:08036C00000000000000000089
:1003740010B5044601F042FC064BA3FB00208009A3
:1003840000F040FD4FF0FF302146002200F0E2FC77
:10039400002010BDD34D621008B5074B1A6842F017
:1003A40010021A60032000F0B7FC0020FFF7E0FF02
:1003B40001F040FF002008BD00200240024B1A68F3
:1003C40001321A60704700BF7C000020014B18689E
:1003D400704700BF7C00002010B582B00190FFF789
:1003E400F5FF0446FFF7F2FF001B019B9842F9D387
:1003F40002B010BDF8B505460C464B690D2B04D967
:10040400554840F25D1101F013FFA369012B04D993
:1004140051484FF4AF7101F00BFFE369012B04D98C
:100424004D4840F25F1101F003FF2369012B04D909
:1004340049484FF4B07101F0FBFE236A012B04D943
:10044400454840F2611101F0F3FE636A1C2B04D9A4
:1004540041484FF4B17101F0EBFE6369012202FAE5
:1004640003F32A68D2F8000220F47C50616A40EA5F
:10047400012141F00101C2F800122968D1F81C02DF
:10048400DA431040C1F81C02E169C1B92968D1F806
:100494000C021040C1F80C0229686069E668A7885C
:1004A40047EA0646483041F8306029686069A66822
:1004B400278847EA0646483001EBC0014E60E169EF
:1004C400012918D12968D1F80C021843C1F80C028B
:1004D400296860692668A78847EA0646483041F8D3
:1004E400306029686069A668A78947EA06464830EB
:1004F40001EBC0014E60A16931B92968D1F8040249
:100504001040C1F8040205E02968D1F80402184338
:10051400C1F80402216931B92968D1F814020240F2
:10052400C1F8142205E02A68D2F814121943C2F85B
:100534001412226A012A05D12A68D2F81C120B432C
:10054400C2F81C322B68D3F8002222F00102C3F84F
:1005540000220020F8BD00BFA42B000838B50446D3
:10056400002800F0FB8003687D4A934203D07D4855
:10057400B82101F05DFEA369012B03D97948B921A3
:1005840001F056FEE369012B03D97648BA2101F044
:100594004FFE236A012B03D97248BB2101F048FEA8
:1005A400636A012B03D96F48BC2101F041FEA36AA1
:1005B400012B03D96B48BD2101F03AFEE36A012BFC
:1005C40003D96848BE2101F033FEA36863B1B3F1D7
:1005D400804F09D0B3F1004F06D0B3F1404F03D0A0
:1005E4006048BF2101F024FEE36863B1B3F1807F6A
:1005F40009D0B3F1007F06D0B3F1407F03D059484E
:10060400C02101F015FE2369B3F5702F03D95548B5
:10061400C12101F00DFE6369B3F5E00F03D9514820
:10062400C22101F005FE6368013BB3F5806F03D37B
:100634004C48C32101F0FCFD94F8393013F0FF0F4E
:1006440005D1002384F83830204601F031FE02231E
:1006540084F8393023681A6822F002021A60236889
:100664001A6842F001021A60FFF7B0FE05460BE07B
:10067400FFF7ACFE401B0A2806D9032084F8390092
:10068400002384F8383038BD23685A6812F0010F0B
:10069400EED05A6812F0010F51D0A269012A01D09C
:1006A400002200E08022E169012901D142F04002E8
:1006B400216A012901D142F02002616A012901D194
:1006C40042F01002A16A012901D142F00802E16A54
:1006D400012901D142F00402196821F0FC010A4306
:1006E4001A602368A168E26841EA020022691043A3
:1006F400626910436268511E40EA0102DA612368AC
:100704001A6822F001021A60FFF760FE05460BE04A
:10071400FFF75CFE401B0A2806D9032084F8390041
:10072400002384F8383038BD23685A6812F0010F6A
:10073400EED05B6813F0010F03D1002302E0002325
:1007440000E001232BB10020E063012384F8393059
:1007540038BD042384F83930012038BD012038BD68
:1007640000640040A42B0008F8B504460E46036B51
:100774009B6833B1042B04D0824840F2172101F066
:1007840057FD236BDB6833B1022B04D07D484FF453
:10079400067101F04DFD236B1B69082B04D97948C0
:1007A40040F2192101F044FD94F83830012B00F097
:1007B400E780012384F8383094F83930DBB2222BF7
:1007C40003D1322384F8393002E0122384F839301B
:1007D40023689A6812F0806F09D19A6812F0006F4A
:1007E40007D19A6812F0805F05D0022504E0002545
:1007F40002E0012500E00425042D00F0B98005F194
:1008040018021201995801F001019950236B9A685A
:10081400AAB91B68B3F5006F04D35A4840F24121CA
:1008240001F006FD226805F118031B01D058216B65
:100834000F68C96841EA47510143D1501AE05B6827
:10084400B3F1005F04D34F4840F2472101F0F0FCBC
:10085400D4F800E005F1180212015EF80270236B6F
:100864009868596840EAC100DB68184347EA000306
:100874004EF80230236B1A6902F00F021A612268E3
:1008840005F118031B011A44516821F00F0151604E
:1008940022681A445068216B096901435160206839
:1008A400226BD77D917D090441EA0761577D41EAB6
:1008B4000721127D0A4329010844C0F888212068D1
:1008C400226B92F81BE0977E3F0447EA0E6792F88A
:1008D40019E047EA0E27127E3A430144C1F88C21FD
:1008E4002268D15841F00101D150FFF76FFD07464E
:1008F4000FE0B6F1FF3F0CD026B1FFF767FDC01B38
:10090400B04206D9032084F83900002384F8383033
:10091400F8BD3DB923689B681B4A13409B1A18BF56
:10092400012310E0012D07D123689B6817490B4070
:100934005B1A18BF012306E023689B68144A13401E
:100944009B1A18BF0123002BD3D194F83930DBB2A2
:10095400322B06D1222384F83930002384F838302E
:1009640002E0012384F83930002084F83800F8BD0F
:10097400042384F83930002384F838300120F8BD8A
:100984000220F8BDA42B00080300000400030008A3
:100994000000031038B504460D46012904D9204847
:1009A40040F27B3101F044FC94F83930DBB2012B86
:1009B40004D094F83930DBB2122B2CD194F83830AF
:1009C400012B2AD0012384F8383094F83930DBB273
:1009D400122B03D1322384F8393002E0222384F825
:1009E40039300022E26321684B6943F40F4343F03A
:1009F40001034B6184F8382035B923685A6942F001
:100A040002025A61002038BD23685A6942F010027C
:100A14005A61002038BD022038BD022038BD00BF15
:100A2400A42B0008704700BF08B503685A6922F078
:100A340001025A6190F83930DBB2122B04D10368F9
:100A44005A6922F40F425A6190F83930DBB2322BE2
:100A540003D1222380F8393002E0012380F83930B1
:100A6400FFF7E0FF002008BD10B5436B026801F1F9
:100A74001B042401125902F004029A60436B9A6821
:100A84003AB9026801F11B0424011259520D1A608B
:100A940006E0026801F11B0424011259D2085A60CD
:100AA400426B046801F11B031B01E45804F00204C7
:100AB400D460426B04681C44646804F00F0414613D
:100AC400426B046823445B68C3F30723D361426B1E
:100AD40004680B011C44D4F8B8411475426B0468D3
:100AE4001C44D4F8B841240A5475426B04681C446D
:100AF400D4F8B841240C9475426B04681C44D4F8AF
:100B0400B841240ED475426B04681C4404F5DC74AB
:100B140064681476426B04681C4404F5DC746468ED
:100B2400240A5476426B04681C4404F5DC7464683B
:100B3400240C9476426B0468234403F5DC735B68ED
:100B44001B0ED37651B90368DA6842F02002DA60EA
:100B540003685A6922F002025A6109E003681A69BB
:100B640042F020021A6103685A6922F010025A61A5
:100B740090F83930DBB2222B04D103685A6922F48D
:100B84000F425A6190F83930DBB2322B03D1122371
:100B940080F8393002E0012380F8393001F022FB7B
:100BA400002010BD704700BF10B5044603685A69A1
:100BB40012F0010F11D09968544A1140914209D0A2
:100BC4009968534A1140914204D09A68514B1A4093
:100BD4009A4202D12046FFF727FF23685A6912F090
:100BE400020F07D0DB6813F0030F03D02046002167
:100BF400FFF73AFF23685A6912F0100F07D01B69F8
:100C040013F0030F03D020460121FFF72DFF2368C3
:100C14009A6912F0010F0BD05A6912F4807F07D041
:100C24005A6912F4004F03D0E26B42F00102E2630E
:100C34009A6912F0020F0BD05A6912F4007F07D0A0
:100C44005A6912F4004F03D0E26B42F00202E263ED
:100C54009A6912F0040F0BD05A6912F4806F07D00E
:100C64005A6912F4004F03D0E26B42F00402E263CB
:100C74009A6912F0700F3AD05A6912F4006F36D0A4
:100C84005A6912F4004F32D09A6902F07002302A85
:100C940016D004D8102A09D0202A0CD023E0502AD8
:100CA40018D0602A1BD0402A1DD10EE0E26B42F01E
:100CB4000802E26317E0E26B42F01002E26312E022
:100CC400E26B42F02002E2630DE0E26B42F040028C
:100CD400E26308E0E26B42F08002E26303E0E26B6D
:100CE40042F48072E2639A6922F070029A61E36BC3
:100CF40053B123685A6842F004025A60012384F80D
:100D040039302046FFF74EFF10BD00BF030000043A
:100D1400000300080000031010B50446C31E042B92
:100D240003D90A48BA2101F083FA04F00704084BF6
:100D3400D86820F4E0600004000C40EA042040F08D
:100D4400BF6040F40030D86010BD00BFD02B000855
:100D540000ED00E070B506460D4614460F2A03D98F
:100D64001A48D22101F064FA0F2D03D91748D32170
:100D740001F05EFA164BDB68C3F30223C3F10701EB
:100D8400042928BF04211A1D062A01D9033B00E0C7
:100D94000023012202FA01F101390D409D4002FABB
:100DA40003F3013B1C402C43002E06DA06F00F0629
:100DB4002401E4B2074B9C5570BD2401E4B206F152
:100DC400604000F5614080F8004370BDD02B0008FE
:100DD40000ED00E014ED00E010B5041E03DA07484E
:100DE400E62101F025FA620904F01F04012303FA45
:100DF40004F4034B43F8224010BD00BFD02B00087D
:100E040000E100E00138B0F1807F0AD2064B58605F
:100E1400F021064A82F823100020986007221A6005
:100E240070470120704700BF10E000E000ED00E0D3
:100E340010B50446042805D020B109484FF4DF71E9
:100E440001F0F6F9042C05D1064B1A6842F00402AD
:100E54001A6010BD034B1A6822F004021A6010BD18
:100E6400D02B000810E000E0704700BF08B5FFF782
:100E7400FBFF08BD2DE9F04383B080460F46AD4B20
:100E8400984213D003F5806398420FD003F5806332
:100E940098420BD003F58063984207D003F5806332
:100EA400984203D0A448CF2101F0C2F93B881BB972
:100EB400A148D02101F0BCF97B68012B22D9112B68
:100EC40020D0022B1ED0122B1CD09C4A934219D046
:100ED40002F58012934215D002F58012934211D08C
:100EE400A2F5F81293420DD002F58012934209D074
:100EF40002F58012934205D0032B03D08E48D121F2
:100F040001F096F94FF000094C4629E10126A6406C
:100F14003D683540B54240F02281864B984513D058
:100F240003F5806398450FD003F5806398450BD093
:100F340003F58063984507D003F58063984503D093
:100F44007D48DF2101F074F97B68122B49D00CD85D
:100F5400022B3AD004D8002B4FD0012B1ED067E0CF
:100F6400032B60D0112B24D062E0754A934244D005
:100F740008D8A2F5801293423FD002F58032934202
:100F840056D13AE06F4A934237D002F58032934209
:100F940033D0A2F5801293424AD12EE0FB68013B84
:100FA400022B03D96448E72101F042F9D7F80C90E9
:100FB4003EE0FB68013B022B03D95F48EE2101F0C0
:100FC40037F9FB6803F1040932E0FB68013B022BAB
:100FD40003D95948F52101F02BF9FB6803F10809FD
:100FE40026E0FB68013B022B03D95348FC2101F0A6
:100FF4001FF9FB6803F10C091AE0BB68022B04D942
:101004004D4840F2091101F013F9BB6873B1012B8B
:1010140004D1C8F810604FF0080909E0C8F814605A
:101024004FF0080904E04FF0000901E04FF0040913
:10103400FF2D01D8434601E008F10403FF2D01D838
:10104400A20002E0A4F10802920018680F21914066
:1010540020EA010109FA02F20A431A607B6813F0DC
:10106400805F7CD0384B9A6942F001029A619B6997
:1010740003F001030193019BA308991C334A52F81E
:10108400210004F0030292000F21914020EA0101A3
:101094002848804513D000F5806080450DD000F5C8
:1010A4008060804507D000F58060804501D1032031
:1010B40006E0042004E0022002E0012000E0002019
:1010C40000FA02F20A430233204941F823207B68E4
:1010D40013F4803F04D01E4B1A682A431A6004E0BC
:1010E4001B4B1A6822EA05021A607B6813F4003F5E
:1010F40004D0174B5A682A435A6004E0144B5A68C8
:1011040022EA05025A607B6813F4801F04D0104B56
:101114009A682A439A6004E00D4B9A6822EA050211
:101124009A607B6813F4001F14D0094BDA681543E6
:10113400DD6014E000080140002C000800001110DC
:101144000000211000003110001002400000014096
:1011540000040140054BDA6822EA0505DD6001342C
:101164000F2C7FF6D3AE03B0BDE8F083000401403A
:1011740070B5054614460E4621B909484FF4F2717C
:1011840001F056F8012C04D9054840F2E51101F0AC
:101194004FF80CB12E6170BD36042E6170BD00BFD6
:1011A400002C000830B583B0044620B9BC484FF485
:1011B400877101F03DF823683BB113F00F0F04D1A0
:1011C400B74840F20F1101F033F8236813F0010F10
:1011D40000F0A680636853B1B3F5803F07D0B3F540
:1011E400A02F04D0AE4840F2151101F021F8AD4B08
:1011F4005B6803F00C03042B0AD0AA4B5B6803F072
:101204000C03082B1BD1A74B5B6813F4803F16D04B
:101214004FF4003393FAA3F3A24B1A684FF400334C
:1012240093FAA3F3B3FA83F303F01F0322FA03F34D
:1012340013F0010F74D06368002B71D11DE3636850
:10124400B3F5803F08D103F1804303F588331A686E
:1012540042F480321A6026E063B903F1804303F557
:1012640004331A6822F480321A601A6822F4802245
:101274001A6018E0B3F5A02F0CD103F18043A3F555
:101284003C331A6842F480221A601A6842F48032AD
:101294001A6008E0834B1A6822F480321A601A68D4
:1012A40022F480221A606368EBB1FFF78FF80546D9
:1012B40005E0FFF78BF8401B642800F2E0824FF44E
:1012C400003393FAA3F3774B1A684FF4003393FA7D
:1012D400A3F3B3FA83F303F01F0322FA03F313F027
:1012E400010FE6D01CE0FFF771F8054605E0FFF7B3
:1012F4006DF8401B642800F2C4824FF4003393FA63
:10130400A3F3684B1A684FF4003393FAA3F3B3FAC8
:1013140083F303F01F0322FA03F313F0010FE6D162
:10132400236813F0020F00F0A0802369012B04D975
:101334005B4840F2491100F07BFF63691F2B04D91D
:1013440057484FF4A57100F073FF564B5B6813F0D8
:101354000C0F0AD0534B5B6803F00C03082B27D106
:10136400504B5B6813F4803F22D1022393FAA3F31A
:101374004C4B1A68022393FAA3F3B3FA83F303F0F2
:101384001F0322FA03F313F0010F03D02369012B87
:1013940040F07982434B196821F0F8016269F82022
:1013A40090FAA0F0B0FA80F082400A431A605CE040
:1013B40023699BB3012292FAA2F3B3FA83F39B004D
:1013C40003F1844303F584031A60FEF7FFFF054627
:1013D40005E0FEF7FBFF401B022800F256820223C1
:1013E40093FAA3F32F4B1A68022393FAA3F3B3FAE5
:1013F40083F303F01F0322FA03F313F0010FE8D081
:10140400284B196821F0F8016269F82090FAA0F0DD
:10141400B0FA80F082400A431A6026E0012393FA6E
:10142400A3F3B3FA83F39B0003F1844303F584032A
:1014340000221A60FEF7CAFF054605E0FEF7C6FF64
:10144400401B022800F22382022393FAA3F3154BD4
:101454001A68022393FAA3F3B3FA83F303F01F0386
:1014640022FA03F313F0010FE8D1236813F0080FF5
:101474005DD0A369012B04D909484FF4C57100F06C
:10148400D7FEA36973B3012393FAA3F1B1FA81F1EF
:10149400054A42F82130FEF799FF05460CE000BFEB
:1014A400442C00080010024080044242FEF78EFFE4
:1014B400401B022800F2ED81022393FAA3F293FA6F
:1014C400A3F2A34A526A93FAA3F3B3FA83F303F0A1
:1014D4001F0322FA03F313F0010FE7D00120FEF7F4
:1014E4007BFF24E0012292FAA2F2B2FA82F20021F6
:1014F400984B43F82210FEF769FF054605E0FEF716
:1015040065FF401B022800F2C681022393FAA3F26E
:1015140093FAA3F28E4A526A93FAA3F3B3FA83F3CB
:1015240003F01F0322FA03F313F0010FE7D123683A
:1015340013F0040F00F0A980E368012B06D9052BF2
:1015440004D0854840F2B71100F072FE804BDA698E
:1015540042F08052DA61DB6903F080530193019B0E
:101564007E4B1A6842F480721A60FEF72FFF05461C
:1015740005E0FEF72BFF401B642800F28E81774BB9
:101584001B6813F4807FF4D0E368012B05D1704B02
:101594001A6A42F001021A6222E063B903F180433D
:1015A40003F504331A6A22F001021A621A6A22F05D
:1015B40004021A6214E0052B09D1654B1A6A42F041
:1015C40004021A621A6A42F001021A6208E0604BCD
:1015D4001A6A22F001021A621A6A22F004021A62DA
:1015E400E3684BB3FEF7F2FE054607E0FEF7EEFEB6
:1015F400401B41F28833984200F25181022393FA4E
:10160400A3F293FAA3F3B3FA83F343F040035B0921
:10161400022B02D14E4B1A6A01E04D4B5A6A022347
:1016240093FAA3F3B3FA83F303F01F0322FA03F349
:1016340013F0010FDAD028E0FEF7C8FE054607E0F4
:10164400FEF7C4FE401B41F28833984200F2298120
:10165400022393FAA3F293FAA3F3B3FA83F343F0C6
:1016640040035B09022B02D1394B1A6A01E0384B63
:101674005A6A022393FAA3F3B3FA83F303F01F0322
:1016840022FA03F313F0010FDAD1E369022B04D930
:10169400314840F2472100F0CBFDE369002B00F014
:1016A40002812B4A526802F00C02082A00F0FD80E5
:1016B400022B40F0B780236A3BB1B3F5803F04D0DE
:1016C40025484FF4147100F0B3FD636A73B3B3F5A6
:1016D400802F2BD0B3F5002F28D0B3F5402F25D081
:1016E400B3F5801F22D0B3F5A01F1FD0B3F5C01FE0
:1016F4001CD0B3F5E01F19D0B3F5001F16D0B3F515
:10170400101F13D0B3F5201F10D0B3F5301F0DD028
:10171400B3F5401F0AD0B3F5501F07D0B3F5601FCF
:1017240004D00D4840F2512100F082FD4FF0807347
:1017340093FAA3F3B3FA83F39B0003F1844303F511
:10174400840300221A60FEF741FE05460EE000BF46
:101754000010024080044242442C00080070004003
:10176400FEF734FE401B022800F2A1804FF0007304
:1017740093FAA3F3514B1A684FF0007393FAA3F34F
:10178400B3FA83F303F01F0322FA03F313F0010FF8
:10179400E6D1236AB3F5803F10D1A3683BB1B3F51A
:1017A400003F04D0464840F2672100F041FD434B1E
:1017B400596821F40031A2680A435A603F4B5968C2
:1017C40021F47411206A626A02430A435A604FF09A
:1017D400807393FAA3F3B3FA83F39B0003F1844376
:1017E40003F5840301221A60FEF7F0FD044604E0C9
:1017F400FEF7ECFD001B02285BD84FF0007393FA50
:10180400A3F32E4B1A684FF0007393FAA3F3B3FAC1
:1018140083F303F01F0322FA03F313F0010FE7D05D
:10182400002049E04FF0807393FAA3F3B3FA83F3F3
:101834009B0003F1844303F5840300221A60FEF73E
:10184400C5FD044604E0FEF7C1FD001B022832D8A2
:101854004FF0007393FAA3F3184B1A684FF0007318
:1018640093FAA3F3B3FA83F303F01F0322FA03F307
:1018740013F0010FE7D100201EE001201CE003203B
:101884001AE0032018E0012016E0032014E00320EE
:1018940012E0032010E003200EE003200CE00320FC
:1018A4000AE0032008E0002006E0012004E0032011
:1018B40002E0032000E0032003B030BD001002402A
:1018C400442C000830B486B01F4D02AC2868696807
:1018D400AA68EB680FC42B8AADF804301B4B5B6815
:1018E40003F00C02082A2AD103F470114FF4701289
:1018F40092FAA2F2B2FA82F221FA02F206A90A4498
:1019040012F8102C13F4803F15D0104B596801F4D1
:1019140000314FF4003393FAA3F3B3FA83F321FABB
:1019240003F306A90B4413F8143C0948B0FBF3F085
:1019340002FB00F004E0074800FB02F000E004486A
:1019440006B030BC704700BF302C000800100240C5
:1019540000127A0000093D0070B50D46044620B916
:10196400A1484FF42F7100F063FC236813F00F0FAC
:1019740004D19D4840F2BD2100F05AFC022D04D947
:10198400994840F2BE2100F053FC984B1B6803F0C9
:101994000703AB420BD2954B1A6822F007022A4385
:1019A4001A601B6803F00703AB4240F00D81236803
:1019B40013F0020F1DD0A368A3B1802B12D0902B7B
:1019C40010D0A02B0ED0B02B0CD0C02B0AD0D02B13
:1019D40008D0E02B06D0F02B04D0834840F2D72166
:1019E40000F026FC824B596821F0F001A2680A43FA
:1019F4005A60236813F0010F00F081806368022BA2
:101A040004D9794840F2DE2100F012FC6368012B0E
:101A140013D14FF4003292FAA2F2754A11684FF4CE
:101A2400003292FAA2F2B2FA82F202F01F0221FA12
:101A340002F212F0010F28D1C8E0022B13D14FF0AB
:101A4400007292FAA2F26A4A11684FF0007292FA96
:101A5400A2F2B2FA82F202F01F0221FA02F212F0AA
:101A6400010F12D1B4E0022292FAA2F2604A116884
:101A7400022292FAA2F2B2FA82F202F01F0221FAD0
:101A840002F212F0010F00F0A580594A516821F0CA
:101A940003010B435360FEF799FC06466368012B70
:101AA4000FD107E0FEF792FC801B41F28833984285
:101AB40000F292804E4B5B6803F00C03042BF1D1CF
:101AC4001DE0022B16D107E0FEF780FC801B41F2DB
:101AD4008833984200F28280454B5B6803F00C0324
:101AE400082BF1D10BE0FEF771FC801B41F2883327
:101AF400984275D83E4B5B6813F00C0FF3D13B4B07
:101B04001B6803F00703AB420AD9384B1A6822F06A
:101B140007022A431A601B6803F00703AB4261D132
:101B2400236813F0040F19D0E36883B1B3F5806F11
:101B34000DD0B3F5A06F0AD0B3F5C06F07D0B3F5DD
:101B4400E06F04D0284840F2323100F071FB284B9A
:101B5400596821F4E061E2680A435A60236813F08B
:101B6400080F1AD0236983B1B3F5806F0DD0B3F594
:101B7400A06F0AD0B3F5C06F07D0B3F5E06F04D0FF
:101B8400194840F2393100F053FB194B5A6822F4DA
:101B94006052216942EAC1025A60FFF793FE144B76
:101BA4005A6802F0F002F02393FAA3F3B3FA83F332
:101BB40022FA03F30F4AD35CD8400F4B186000207D
:101BC400FEF7D6FB002070BD012070BD012070BD62
:101BD400012070BD012070BD032070BD032070BDC5
:101BE400032070BD012070BD442C00080020024079
:101BF40000100240B82D00080C000020014B1868AA
:101C0400704700BF0C000020FEE700BF08B50D4B75
:101C14001B6813B90C4A0B4B1A600A4B1B68033040
:101C240020F003001844094A904206D900F08CFBC6
:101C34000C2303604FF0FF3008BD024A10601846C1
:101C440008BD00BF80000020A4010020004C00203B
:101C540001230360014B0B60704700BF04000020A8
:101C64000FB400B583B004AB53F8042B01930848B8
:101C7400802100F0A9FB011E03DD054800F03AF8BD
:101C84000146084603B05DF804EB04B0704700BF9A
:101C9400880000202DE9F04385B004468846435C63
:101CA4000BBB042528462146ABBE04461EE0102F7C
:101CB40034BF3E461026002306E014F8015B04AA54
:101CC4001A4402F8105C0133B342F6D304AA134455
:101CD400002203F8102CE946042528464946ABBEE9
:101CE4000546BF1B00E00F46002FE0D1404605B07B
:101CF400BDE8F08308B5FFF7CDFF08BD08B500F0D7
:101D040097F8024B024A9A6008BD00BF00ED00E05C
:101D14000000000808B500F0B1F808BDF8B50446A5
:101D24000D4617461E462648FFF79AFF25482168A8
:101D3400FFF796FF24486168FFF792FF2348A168E4
:101D4400FFF78EFF2248E168FFF78AFF21482169E7
:101D5400FFF786FF20486169FFF782FF1F48A169EA
:101D6400FFF77EFF1E48E169FFF77AFF1D48FFF782
:101D740077FF1D482946FFF773FF1C4CE16A1C4896
:101D8400FFF76EFF216B1B48FFF76AFFE16B1A48F0
:101D9400FFF766FF15F0800F03D018483946FFF7A8
:101DA4005FFF15F4004F03D015483146FFF758FF85
:101DB4001448FFF755FF14480699FFF751FFF8BD83
:101DC400702C0008802C0008902C0008A02C00081F
:101DD400B02C0008C02C0008D02C0008E02C00080F
:101DE400F02C0008002D00080C2D000800ED00E088
:101DF4001C2D00082C2D00083C2D00084C2D00083B
:101E04005C2D00086C2D0008742D000883691A8865
:101E14008A4207D10268033A012A05D80233836152
:101E2400012070470020704700207047FEE7000043
:101E34000F4B1A6842F001021A6059680D4A0A40B1
:101E44005A601A6822F0847222F480321A601A6886
:101E540022F480221A605A6822F4FE025A604FF477
:101E64001F029A604FF00062034B9A60704700BFF4
:101E7400001002400000FFF800ED00E01F4B5B681B
:101E840003F00C03042B06D0082B08D03BBB1C4AE0
:101E94001C4B1A6026E01A4A1A4B1A6022E0174BB0
:101EA4005A685B68C2F38342023213F4803F05D15F
:101EB400154B03FB02F2134B1A6013E00F4B5B68E4
:101EC40013F4003F05D0104B03FB02F20D4B1A60D4
:101ED40008E00B4B03FB02F20A4B1A6002E0084ACB
:101EE400084B1A60054B5B68C3F30313074AD15CC4
:101EF400044B1A68CA401A60704700BF00100240C1
:101F040000127A000C00002000093D00B82D0008E2
:101F140010B588B0174B9A6942F010029A619A6919
:101F240002F010020192019A9A6942F020029A6129
:101F34009A6902F020020292029A9A6942F004021B
:101F44009A619B6903F004030393039B0A4C2046A4
:101F54004FF400510022FFF70BF94FF400530493A0
:101F64000123059302230793204604A9FEF782FF69
:101F740008B010BD001002400010014008B5142044
:101F840000210A46FEF7E6FE1420FEF725FF08BDF1
:101F9400FEE700BF00B58BB01F48204B0363204B06
:101FA4004363204B03600C23436000238360C360BE
:101FB4004FF4602202614FF4E00242618361C36125
:101FC400036243628362C362FEF7C8FA08B1FFF793
:101FD400DFFF0023059306930122079200930193E8
:101FE40002930393049308920E2309930A486946C3
:101FF400FEF700FA08B1FFF7CBFF074B1A6B40F26C
:1020040023111160196B00224A60196BCA601B6BA3
:102014009A600BB05DF804FB600100201001002001
:10202400300100200064004000B591B00122069206
:102034004FF480330793002108910A9202220D92F3
:102044000E934FF4E0130F9306A8FFF7ABF808B113
:10205400FFF79EFF0F2301930221029100230393B4
:102064004FF480620492059301A8FFF775FC08B150
:10207400FFF78EFFFFF7C2FD084BA3FB002080098A
:10208400FEF7C0FE0420FEF7D3FE4FF0FF30002120
:102094000A46FEF75FFE11B05DF804FBD34D6210F3
:1020A400F0B583B0FEF778F9FFF7BEFFFFF730FF16
:1020B400FFF770FFFFF762FF41480021FEF76AFC5B
:1020C40008B1FFF765FF00252C463E4B1B7833B360
:1020D40000243C4B1C70FEF779F93B4B18603B48DD
:1020E4004FF400512246FFF743F8394B93E80300BD
:1020F4000090ADF80410090C8DF80610304C266BD6
:10210400684600F02FF93061206B1430694600F006
:1021140021F920460A21FEF727FB012424E0FEF7DB
:1021240055F9294B1B68C01A2A4A126890421BD9D8
:10213400D4B126484FF400510122FFF719F8264B79
:1021440093E803008DE803001D4E376B684600F0EA
:1021540009F93861306B1430694600F0FBF83046F9
:102164006421FEF701FB0024FEF730F9401B41F225
:102174008833984215D9FEF729F90546174B186894
:1021840000909B88ADF804300D4E336B06221A6123
:10219400306B1430694600F0DDF830466421FEF7F8
:1021A400E3FA0F4B1B78002B8FD005480021FEF774
:1021B400F1FB002889D10022094B1A7085E700BF82
:1021C400600100202C0100200C01002000100140BF
:1021D400D02D000808010020D82D0008C82D0008C3
:1021E4002D010020436B1A6840F225118A4214D154
:1021F4001A7DFE2A11D101210A4A11701A69052A91
:102204000BD1597D9A7D120442EA0162D97D42EADA
:1022140001221B7E1A43044B1A600122034B1A70DD
:10222400704700BF2C010020080100202D01002070
:10223400704700BF00B583B01C4B9A6942F001029D
:102244009A619B6903F001030193019B0320FEF74C
:1022540063FD6FF00B0000210A46FEF77BFD6FF073
:102264000A0000210A46FEF775FD6FF009000021FF
:102274000A46FEF76FFD6FF0040000210A46FEF7E0
:1022840069FD6FF0030000210A46FEF763FD6FF05D
:10229400010000210A46FEF75DFD4FF0FF300021EA
:1022A4000A46FEF757FD03B05DF804FB0010024038
:1022B40010B586B00268134B9A4220D103F5D63389
:1022C400DA6942F00072DA61DB6903F000730193AA
:1022D400019B4FF4006302930023039304930A4C7D
:1022E400204602A9FEF7C6FD4FF480530293022351
:1022F400039303230593204602A9FEF7BBFD06B012
:1023040010BD00BF0064004000080140704700BFDA
:10231400FEE700BFFEE700BFFEE700BFFEE700BF29
:10232400704700BF704700BF704700BF08B5FEF795
:1023340045F8FEF79BFD08BD08B50248FEF734FCDE
:1023440008BD00BF60010020014B1868704700BF42
:1023540070000020034611F8012B03F8012B002A1A
:10236400F9D17047034613F8012B002AFBD1181A40
:102374000138704730B5141E9BB0054604DA8B2330
:1023840003604FF0FF301CE04FF40272009104919F
:10239400ADF80C2014BF04F1FF3121464FF6FF7253
:1023A40002910591ADF80E2069461A461E9B00F075
:1023B40077F8431CBCBF8B232B6014B1009B002215
:1023C4001A701BB030BD000073B50093054B064670
:1023D4000D461446186831462A462346FFF7CAFFBD
:1023E40002B070BD700000202DE9F0478D68814671
:1023F400AB420C4692461F4643D38B8913F4906F2D
:102404003DD0266809690222C1EB0608666906EB1D
:10241400460696FBF2F608F101023A44964238BFAA
:1024240016465B050FD5314600F024FB054698B1EE
:102434002169424600F0B6FAA38923F4906343F07D
:102444008003A38113E0324600F06AFB054670B9AD
:102454004846216900F0CAFA0C23C9F80030A38960
:102464004FF0FF3043F04003A381BDE8F0872561BE
:1024740066614544C8EB06062560A6603D46AF424A
:1024840000D23D462A462068514600F094FAA368DB
:1024940000205B1BA36023681D442560BDE8F08712
:1024A4002DE9F0439DB003938B8907461C060D4626
:1024B40016460CD50B6953B9402100F0DBFA2860AD
:1024C400286110B90C233B60C7E040236B610023F3
:1024D400099320238DF8293030238DF82A30334690
:1024E4001C4613F8012B1AB9B4EB06090FD002E00D
:1024F400252AF5D1F8E73846294632464B46FFF7F8
:1025040073FF013000F0A480099B4B4409932378A6
:10251400002B00F09D8000234FF0FF3204930793BB
:10252400059206938DF853301A9304F101094D4E28
:102534004C4630462178052200F026FA09F10109BB
:10254400049B28B1861B0120B04003430493EEE7AB
:10255400D90644BF20228DF853201A0744BF2B22EA
:102564008DF8532022782A2A02D0079B21460EE0B8
:10257400039A111D12680391002A01DB079204E0FB
:10258400524243F002030792049301340AE00C46DA
:1025940022780131303A092A03D80A2000FB0323A8
:1025A400F5E7079323782E2B19D163782A2B09D1C9
:1025B400039B02341A1D1B680392002BB8BF4FF013
:1025C400FF330BE0611C00230C4622780131303AC2
:1025D400092A03D80A2000FB0323F5E70593224EBA
:1025E40021783046032200F0CFF930B1861B402019
:1025F400B040049B01340343049321781B48062212
:10260400661C8DF8281000F0BFF988B1184B33B957
:10261400039B073323F007030833039314E003AB4E
:102624000093384604A92A46124BAFF3008007E012
:1026340003AB0093384604A92A460E4B00F08EF8EB
:10264400B0F1FF3F804603D0099B4344099346E71A
:10265400AB895B0601D4099801E04FF0FF301DB04F
:10266400BDE8F083E22D0008E82D0008EC2D0008F9
:1026740000000000ED2300082DE9F84315461F462D
:102684008A680B6906469A42A8BF13462B6091F8E4
:1026940043200C46DDF820800AB101332B60236807
:1026A400990602D52B6802332B60236813F00609C0
:1026B4001DD094F843302268003318BF01239206DA
:1026C4001FD5E118302081F843005A1C94F84510B6
:1026D4002244023382F8431013E03046394604F1B1
:1026E40019020123C047013007D009F10109E2684A
:1026F4002B68D31A9945F0DBDBE74FF0FF30BDE8D8
:10270400F8833046394604F14302C0470130F4D01F
:1027140023682A6803F00603E168042B08BFC2EBB0
:1027240001052369A2680CBF25EAE57500259A42D4
:10273400C4BFC3EB0203ED184FF00009A9450ADA40
:102744003046394604F11A020123C0470130D4D07F
:1027540009F10109F2E70020BDE8F8832DE9FF47FC
:102764000E7E80466E2E0C4691469A460C9D01F1D3
:10277400430000F0A58011D8632E22D009D8002E82
:1027840000F0B280582E40F0C28081F845607C4A47
:102794004FE0642E1ED0692E1CD0B8E0732E00F0DA
:1027A400A78009D86F2E2BD0702E40F0B0800B6814
:1027B40043F020030B6038E0752E21D0782E34D0FE
:1027C400A5E02B6801F142071A1D1B682A6081F8F5
:1027D4004230A0E022682B6812F0800F03D01A1D4B
:1027E4002A601D6805E05706F9D51A1D2A60B3F959
:1027F4000050002D39DA2D236D4284F8433034E043
:1028040022682B6812F0800F03D01A1D2A601D68FD
:1028140004E05606F9D51A1D2A601D88237E584AFD
:102824006F2B14BF0A2308231BE07823554A84F82E
:1028340045302368296813F0800F01F104062E60E7
:1028440001D00D6802E05D06FBD50D88D90744BFB1
:1028540043F0200323601DB9236823F02003236081
:102864001023002184F8431001E0454A0A236668D6
:10287400002EA66003DB216821F00401216005B964
:102884006EB104F14201B5FBF3F603FB1655555D39
:102894000F4601F801593546002EF4D100E00746F1
:1028A400082B0AD12368DA0707D5626823699A429C
:1028B40003DC302307F8013C013FC01B20612FE0FB
:1028C40009682B6811F0800F626903D0191D296013
:1028D4001B6808E011F0400F03F1040129601B6834
:1028E40001D01A8000E01A6000232361074617E034
:1028F4002B681A1D2A601F683846FFF733FD63688A
:102904002061984288BF23612369636005E004F174
:10291400420784F8426001232361002384F8433092
:10292400CDF800A04046214603AA4B46FFF7A4FE7B
:10293400013002D14FF0FF301FE0404649463A468D
:102944002369D0470130F5D023689B0705D4E0689C
:10295400039B9842B8BF18460FE00025E268039B2A
:10296400D31A9D42F3DA4046494604F11902012381
:10297400D0470130DED00135F0E704B0BDE8F08780
:10298400F32D0008042E000810B5C9B20244904289
:10299400034605D01C7801308C42F8D1184610BD8E
:1029A400002010BD10B50023934203D0CC5CC45466
:1029B4000133F9E710BD814270B501D300230EE065
:1029C4008C18A042FAD28518134613F1FF3305D3AD
:1029D40051426618F65C2944CE54F6E770BD934222
:1029E40003D0CC5CC4540133F9E770BD30B5002981
:1029F4003CD051F8042C0B1F1D49002AB8BF9B186A
:102A04000A680C4612B95A600B6030BD93420DD26D
:102A140019685818904203D15A58114442681960F1
:102A24005A60236030BD994203D80A465168002990
:102A3400F9D1146815199D420AD11B682344D01892
:102A44008842136012D10868034413604B680CE099
:102A540002D90C23036030BD18681C188C4203D1C2
:102A64000C684968204418605960536030BD00BF49
:102A74005801002070B5CD1C25F0030508350C2D38
:102A840038BF0C25002D064603DA0C2333600020E2
:102A940070BD8D42F9D3204B1C6818462146A1B164
:102AA4000B685B1B0ED40B2B03D90B60CC18CD50D9
:102AB4001FE08C4202D1626802601AE04B686360D6
:102AC4000C4616E00C464968E9E7144C23681BB928
:102AD400304600F04BF820602946304600F046F8B6
:102AE400431C0146D1D0C41C24F0030484420AD1FF
:102AF400256004F10B00231D20F00700C31A09D040
:102B04005A42E25070BD3046611A00F02FF801308D
:102B1400EED1BAE770BD00BF580100205401002077
:102B2400F8B5064614460D4621B91146BDE8F840ED
:102B3400FFF7A0BF1AB9FFF759FF2046F8BD00F010
:102B440025F8A0420ED230462146FFF793FF0746F0
:102B540050B129462246FFF725FF30462946FFF7A4
:102B640045FF01E02846F8BD3846F8BD38B5064CA7
:102B74000023054608462360FFF748F8431C02D1AA
:102B8400236803B12B6038BD5C01002051F8040CAC
:102B9400002802DA04390B5818440438704700003E
:102BA4002E2E2F73797374656D2F7372632F737464
:102BB4006D3332663178782F73746D3332663178C1
:102BC400785F68616C5F63616E2E63002E2E2F73D5
:102BD400797374656D2F7372632F73746D333266FA
:102BE4003178782F73746D3332663178785F686129
:102BF4006C5F636F727465782E6300002E2E2F73E2
:102C0400797374656D2F7372632F73746D333266C9
:102C14003178782F73746D3332663178785F6861F8
:102C24006C5F6770696F2E63000000000203040587
:102C3400060708090A0B0C0D0E0F10100102000004
:102C44002E2E2F73797374656D2F7372632F7374C3
:102C54006D3332663178782F73746D333266317820
:102C6400785F68616C5F7263632E630053746163A1
:102C74006B206672616D653A0A00000020523020B4
:102C84003D2020253038580A000000002052312011
:102C94003D2020253038580A000000002052322000
:102CA4003D2020253038580A0000000020523320EF
:102CB4003D2020253038580A0000000020523132CF
:102CC400203D20253038580A00000000204C5220B6
:102CD4003D2020253038580A0000000020504320B1
:102CE4003D2020253038580A00000000205053525F
:102CF400203D20253038580A000000004653522F4A
:102D04004641523A0A0000002043465352203D20D7
:102D140020253038580A00002048465352203D20D0
:102D240020253038580A00002044465352203D20C4
:102D340020253038580A00002041465352203D20B7
:102D440020253038580A0000204D4D464152203D80
:102D540020253038580A00002042464152203D20A8
:102D640020253038580A00004D6973630A000000BA
:102D7400204C522F4558435F52455455524E3D20E6
:102D8400253038580A0000005B486172644661755A
:102D94006C745D0A000000005B4275734661756CDB
:102DA400745D0A005B55736167654661756C745D9B
:102DB4000A000000000000000000000001020304FB
:102DC40006070809DEADBEEFFEED00004C454420C9
:102DD4004F4E00004C4544204F4646004300232DEF
:102DE400302B2000686C4C00656667454647003010
:102DF400313233343536373839414243444546005D
:102E0400303132333435363738396162636465665C
:012E140000BD
:102E180078563412840000200000000000A24A0402
:102E2800000000000000000000000000000000009A
:102E3800000000000000000000000000000000008A
:102E4800E02D000800000000000000000000000065
:102E5800000000000000000000000000000000006A
:102E6800000000000000000000000000000000005A
:102E7800000000000000000000000000000000004A
:082E880010000020325476987E
:040000050800010DE1
:00000001FF
