:020000040800F2
:1000000000500020210200082123000823230008BB
:1000100025230008272300082923000800000000EA
:100020000000000000000000000000002B2300087A
:100030002D230008000000002F23000831230008B2
:10004000351E0008351E0008351E0008351E000844
:10005000351E0008351E0008351E0008351E000834
:10006000351E0008351E0008351E0008351E000824
:10007000351E0008351E0008351E0008351E000814
:10008000351E0008351E0008351E0008351E000804
:100090003D230008351E0008351E0008351E0008E7
:1000A000351E0008351E0008351E0008351E0008E4
:1000B000351E0008351E0008351E0008351E0008D4
:1000C000351E0008351E0008351E0008351E0008C4
:1000D000351E0008351E0008351E0008351E0008B4
:1000E000351E0008351E0008351E000800000000FF
:1000F0000000000000000000000000000000000000
:1001000000000000000000005FF808F100B583B0B7
:1001100001F0F6FD304B314A1360314A1360314B28
:10012000314A03E011681960043304322F498B42CD
:10013000F8D32A4B1A682E4B9A4200D0FEE7284B80
:100140001A682C4B9A42F9D1234B2B4A13602B4A45
:1001500013602B4B02E000221A600433294A9342B9
:10016000F9D3254B1B6813B9244B1B6803B1FEE779
:1001700001F0D2FD694601A801F06EFD224B234C2F
:10018000E41AA4100025AC4214DC214B214CE41AE3
:10019000A4100025AC4213DC0099019801F084FF03
:1001A00005461D4B1D4CE41AA410002C0EDC2846FD
:1001B00001F02EFD144B53F8253098470135E2E746
:1001C000134B53F8253098470135E3E7013C124BB8
:1001D00053F824309847E8E7BABADECA0000002096
:1001E0007400002000000020643300087800002024
:1001F000785634123254769878000020A4010020FA
:1002000078000020A801002074030008740300088F
:1002100074030008740300087403000874030008E2
:1002200008B5FFF773FF00BEFEE71EF0040F0CBF1A
:10023000EFF30880EFF309807146414A10472DE93A
:10024000F04182B004468846124B5E6B9F6B9D6AFC
:100250001B6B13F0020F03D00E4BDB6A002B0CDB81
:100260000D4801F001FDCDF800803B46324629469D
:10027000204601F055FD00BEFEE74BF6AB6101F0F4
:10028000C9FD0028ECD04FF00042024BDA6202B008
:10029000BDE8F08100ED00E0D032000800BEFEE7CE
:1002A0001EF0040F0CBFEFF30880EFF309807146D6
:1002B000244A10472DE9F04182B004468846084B95
:1002C0005E6B9F6B9D6A074801F0CEFCCDF8008005
:1002D0003B4632462946204601F022FD00BEFEE79D
:1002E00000ED00E0E03200081EF0040F0CBFEFF359
:1002F0000880EFF309807146134A10472DE9F04159
:1003000082B004468846084B5E6B9F6B9D6A074827
:1003100001F0AAFCCDF800803B4632462946204633
:1003200001F0FEFC00BEFEE700ED00E0EC3200084C
:1003300000BEFEE700BEFEE700BEFEE7704700001D
:0C0340003F020008B5020008FD020008A2
:10034C0064330008000000207800002064330008AB
:10035C00000000000000000078000020A801002030
:08036C00000000000000000089
:1003740010B5044601F044FC064BA3FB0030800991
:1003840000F040FD002221464FF0FF3000F0E0FC79
:10039400002010BDD34D621008B5074A136843F01E
:1003A40010031360032000F0B5FC0020FFF7E0FF0A
:1003B40001F048FF002008BD00200240024A1368F3
:1003C40001331360704700BF7C000020014B1868A4
:1003D400704700BF7C00002010B582B00190FFF789
:1003E400F5FF0446FFF7F2FF001B019B9842F9D387
:1003F40002B010BDF8B505460C464B690D2B74D8F8
:10040400A369012B04D94FF4AF71554801F018FFCB
:10041400E369012B04D940F25F11514801F010FF48
:100424002369012B04D94FF4B0714D4801F008FF42
:10043400236A012B04D940F26111494801F000FFFD
:10044400636A1C2B57D8636901229A402968D1F842
:10045400003223F47C53606A43EA002343F001032F
:10046400C1F800322868D0F81C12D3431940C0F8F0
:100474001C12E169C1B92868D0F80C121940C0F8FF
:100484000C122E686169E768A08840EA0740483189
:1004940046F8310029686669A768208840EA074061
:1004A400483601EBC6014860E169012929D0A169F8
:1004B400002940D12868D0F804121940C0F8041269
:1004C400216900293ED12968D1F814020340C1F8FA
:1004D4001432236A012B3CD02A68D2F8003223F06C
:1004E4000103C2F800320020F8BD40F25D111C483F
:1004F40001F0A6FE84E74FF4B171194801F0A0FEA3
:10050400A1E72868D0F80C121143C0F80C122E6829
:1005140061692768A08840EA0740483146F83100FD
:1005240029686669A768A08940EA0740483601EB54
:10053400C6014860BBE72868D0F804121143C0F82C
:100544000412BDE72968D1F814321343C1F81432F8
:10055400BFE72B68D3F81C120A43C3F81C22BBE77D
:10056400E8300008002800F0FB8038B50446026833
:100574007C4B9A4203D0B8217B4801F061FEA36909
:10058400012B03D9B921784801F05AFEE369012B04
:1005940003D9BA21744801F053FE236A012B03D90D
:1005A400BB21714801F04CFE636A012B03D9BC21C5
:1005B4006D4801F045FEA36A012B03D9BD216A48A9
:1005C40001F03EFEE36A012B03D9BE21664801F027
:1005D40037FEA36863B1B3F1804F09D0B3F1004F84
:1005E40006D0B3F1404F03D0BF215F4801F028FE8D
:1005F400E36863B1B3F1807F09D0B3F1007F06D023
:10060400B3F1407F03D0C021574801F019FE23699C
:10061400B3F5702F2CD86369B3F5E00F2DD8636858
:10062400013BB3F5806F2DD294F839307BB30223AC
:1006340084F839302268136823F0020313602268B7
:10064400136843F001031360FFF7C0FE05462368F7
:100654005A6812F0010F20D1FFF7B8FE401B0A2898
:10066400F5D9032084F83900002384F8383038BDE4
:10067400C1213D4801F0E4FDCDE7C2213A4801F033
:10068400DFFDCCE7C321384801F0DAFDCCE784F87C
:100694003830204601F014FEC9E75A6812F001020E
:1006A40052D0A269012A39D00022E169012937D048
:1006B400216A012937D0616A012937D0A16A012949
:1006C40037D0E16A012937D0196821F0FC010A43C7
:1006D4001A602168A368E2681343226913436269BC
:1006E40013436268013A1343CB612268136823F011
:1006F40001031360FFF76AFE054623685A6812F087
:10070400010F1CD1FFF762FE401B0A28F5D9032014
:1007140084F83900002384F8383038BD8022C4E7D7
:1007240042F04002C4E742F02002C4E742F0100263
:10073400C4E742F00802C4E742F00402C4E75A687E
:1007440012F0010200D0012222B9042384F83930C6
:10075400012038BD0020E063012384F8393038BD1E
:100764000120704700640040E8300008F8B50446F2
:100774000E46036B9B6833B1042B04D040F217215F
:10078400814801F05DFD236BDB6833B1022B04D09B
:100794004FF406717C4801F053FD236B1B69082B51
:1007A4001ED894F83830012B00F0EC80012384F833
:1007B400383094F83930DBB2222B17D0122384F866
:1007C400393023689A6812F0806F13D19A6812F056
:1007D400006F6ED19A6812F0805F6CD002250AE037
:1007E40040F21921684801F02BFDDAE7322384F83E
:1007F4003930E6E70025042D00F0BC8005F118022D
:100804001201995801F001019950236B9A68002A4A
:1008140059D11B68B3F5006F4FD2206805F1180356
:100824001B01C258276BD7F800E0F96841EA4E5122
:100834000A43C250226B136903F00F031361236848
:1008440005F1180109010B445A6822F00F025A609D
:1008540023680B445A68206B006902435A6022687B
:10086400206BC77D837D1B0443EA0763477D43EA0E
:100874000723007D03432F013A44C2F888312268DC
:10088400206B90F81BE0837E1B0443EA0E6390F810
:1008940019E043EA0E23007E03433A44C2F88C3144
:1008A4002268535843F001035350FFF78FFD074666
:1008B4003EE001259FE704259DE740F241213248AF
:1008C40001F0BEFCA9E75B68B3F1005F10D22768B2
:1008D40005F11802120157F802E0206B81684368A1
:1008E40041EAC303C068034343EA0E03BB50A1E7D4
:1008F40040F24721244801F0A3FCE8E726B1FFF7C2
:1009040065FDC01B864213D2032084F839000023FE
:1009140084F83830F8BD012D14D023689A681B4B35
:10092400934314BF01230023A3B1B6F1FF3FE5D1E4
:10093400002DF0D123689A68154B934314BF01230B
:100944000023F1E723689A68124B934314BF0123F1
:100954000023E9E794F83930DBB2322B06D00123C7
:1009640084F83930002084F83800F8BD222384F854
:100974003930F7E7042384F83930002384F8383019
:100984000120F8BD0220F8BDE83000080000031083
:10099400030000040003000838B504460D4601298D
:1009A40004D940F27B311F4801F04AFC94F83930F5
:1009B400DBB2012B06D094F83930DBB2122B01D014
:1009C400022038BD94F83830012B28D0012384F854
:1009D400383094F83930DBB2122B15D0222384F846
:1009E40039300022E26321684B6943F40F4343F03A
:1009F40001034B6184F8382055B12268536943F0F0
:100A040010035361002038BD322384F83930E8E7FD
:100A14002268536943F002035361002038BD022069
:100A240038BD00BFE8300008704708B50268536954
:100A340023F00103536190F83930DBB2122B0BD051
:100A440090F83930DBB2322B0CD0012380F83930E6
:100A5400FFF7EAFF002008BD0268536923F40F433F
:100A64005361EDE7222380F83930F1E710B5426B8A
:100A7400046801F11B031B01E35803F004039360B2
:100A8400436B9A68002A70D1046801F11B021201B9
:100A9400A258520D1A60446B026801F11B031B013A
:100AA400D25802F00202E260446B02681A445268AF
:100AB40002F00F022261446B026813445B68C3F3C3
:100AC4000723E361446B02680B011A44D2F8B8218E
:100AD4002275446B02681A44D2F8B821120A62756E
:100AE400446B02681A44D2F8B821120CA275446B04
:100AF40002681A44D2F8B821120EE275446B0268F7
:100B04001A44D2F8BC212276446B02681A44D2F803
:100B1400BC21120A6276446B02681A44D2F8BC21E2
:100B2400120CA276446B02681344D3F8BC311B0E3A
:100B3400E37611BB0268D36843F02003D3600268F4
:100B4400536923F00203536190F83930DBB2222B4E
:100B54001ED090F83930DBB2322B1FD0012380F83D
:100B6400393001F047FB002010BD046801F11B027D
:100B74001201A258D2085A608DE70268136943F043
:100B8400200313610268536923F010035361DBE708
:100B94000268536923F40F435361DAE7122380F8A0
:100BA4003930DEE77047000010B5044603685A691F
:100BB40012F0010F0ED09968534A8A4307D09968FE
:100BC400524A8A4303D09A68514B934302D1204638
:100BD400FFF72BFF23685A6912F0020F03D0DB687A
:100BE40013F0030F56D123685A6912F0100F03D083
:100BF4001B6913F0030F52D123689A6912F0010F95
:100C04000BD05A6912F4807F07D05A6912F4004F4E
:100C140003D0E26B42F00102E2639A6912F0020F20
:100C24000BD05A6912F4007F07D05A6912F4004FAE
:100C340003D0E26B42F00202E2639A6912F0040FFD
:100C44000BD05A6912F4806F07D05A6912F4004F1E
:100C540003D0E26B42F00402E2639A6912F0700F6F
:100C640033D05A6912F4006F2FD05A6912F4004F2E
:100C74002BD09A6902F07002302A29D014D9502A54
:100C84002BD0602A2ED0402A1BD1E26B42F04002C6
:100C9400E26316E000212046FFF7E8FEA3E7012106
:100CA4002046FFF7E3FEA7E7102A06D0202A08D142
:100CB400E26B42F01002E26303E0E26B42F00802EE
:100CC400E2639A6922F070029A61E36B7BB910BD0A
:100CD400E26B42F02002E263F3E7E26B42F080024F
:100CE400E263EEE7E26B42F48072E263E9E72268D2
:100CF400536843F004035360012384F839302046D9
:100D0400FFF750FFE3E700BF0300000400030008FF
:100D14000000031010B50446C31E042B0FD80A4A62
:100D2400D36823F4E0631B041B0C240204F4E06482
:100D3400234343F0BF6343F40033D36010BDBA21AF
:100D4400024801F07DFAEAE700ED00E01431000802
:100D540070B505460C4616460F2A24D80F2C27D802
:100D64001A4BDB68C3F30223C3F10702042A28BF2A
:100D74000422191D062920D9033B012101FA02F29C
:100D8400013A14409C4001FA03F3013B33401C43F5
:100D9400002D14DB2401E4B205F1604505F561453D
:100DA40085F8004370BDD221094801F049FAD5E71E
:100DB400D321074801F044FAD2E70023DDE705F028
:100DC4000F052401E4B2034B5C5570BD00ED00E057
:100DD4001431000814ED00E010B5041E09DB6209AB
:100DE40004F01F04012303FA04F4044B43F82240E3
:100DF40010BDE621024801F023FAF0E700E100E02B
:100E0400143100080138B0F1807F0AD2064B5860D3
:100E1400F021064A82F823100020986007221A6005
:100E240070470120704700BF10E000E000ED00E0D3
:100E340010B50446042800D038B9042C0BD0094A54
:100E4400136823F00403136010BD4FF4DF710648E8
:100E540001F0F6F9F1E7034A136843F00403136061
:100E640010BD00BF10E000E014310008704708B561
:100E7400FFF7FCFF08BD00002DE9F04383B0804676
:100E84000F46B84B984213D003F5806398420FD0B5
:100E940003F5806398420BD003F58063984207D032
:100EA40003F58063984203D0CF21AF4801F0C8F91D
:100EB4003B884BB37B68012B22D9112B20D0022B0A
:100EC4001ED0122B1CD0A94A934219D002F58012CD
:100ED400934215D002F58012934211D0A2F5F81274
:100EE40093420DD002F58012934209D002F580128C
:100EF400934205D0032B03D0D1219B4801F0A0F9E4
:100F04004FF000094E467BE0D021974801F098F954
:100F1400D0E7002B00F0C380012B06D1FB68013B16
:100F2400022B00F2C980D7F80C90FF2C00F2F98054
:100F34004046FF2C00F2F880B20003680F21914074
:100F440023EA010309FA02F2134303607B6813F0F6
:100F5400805F54D0864B9A6942F001029A619B6982
:100F640003F001030193019BB208911C814B53F8D8
:100F7400213006F0030189000F20884023EA000392
:100F84007848804500F0D68000F58060804500F008
:100F9400D38000F58060804500F0D08000F580604B
:100FA400804500F0C580042000FA01F10B430232B1
:100FB400704941F822307B6813F4803F00F0C08010
:100FC4006D4A1368234313607B6813F4003F00F0F9
:100FD400BD80694A5368234353607B6813F4801FC0
:100FE40000F0BA80644A9368234393607B6813F4E7
:100FF400001F00F0C780604AD3681C43D4600136E8
:101004000F2E00F2C5800125B5403C682C40A54256
:10101400F5D1544B984513D003F5806398450FD010
:1010240003F5806398450BD003F58063984507D09A
:1010340003F58063984503D0DF214B4801F000F9A4
:101044007B68122B4FD010D8022B3FD07FF661AFB4
:10105400032B60D0112B7FF468AFFB68013B022B9C
:101064002FD8FB6803F104095FE7444A934216D082
:101074000CD9434A934212D002F5803293420ED0E7
:10108400A2F5801293427FF450AF08E0A2F58012DB
:10109400934204D002F5803293427FF446AFBB689A
:1010A400022B2DD8BB68002B38D0012B2ED0C8F8CA
:1010B40014504FF0080938E7E7212B4801F0C0F835
:1010C40031E7EE21284801F0BBF8CAE7FB68013B91
:1010D400022B03D8FB6803F1080926E7F52122480F
:1010E40001F0AEF8F6E7FB68013B022B03D8FB687E
:1010F40003F10C0919E7FC211B4801F0A1F8F6E7FC
:1011040040F20911184801F09BF8CBE7C8F81050D9
:101114004FF0080909E74FF0000906E74FF004090A
:1011240003E708F1040004E7A6F10802920004E7CB
:10113400032039E7002037E7012035E7022033E7B1
:101144000D4A136823EA040313603DE70A4A53680F
:1011540023EA0403536040E7074A936823EA04033D
:10116400936043E700080140443100080000111077
:101174000010024000000140000401400000211062
:1011840000003110044AD36823EA0404D46036E72B
:1011940003B0BDE8F08300BF0004014070B506460B
:1011A40015460C4651B1012D04D940F2E51107480A
:1011B40001F046F845B92404346170BD4FF4F2716E
:1011C400024801F03DF8EEE7346170BD4431000897
:1011D40030B583B00446002856D0236813B113F009
:1011E4000F0F57D0236813F0010F75D0636853B104
:1011F400B3F5803F07D0B3F5A02F04D040F215110A
:10120400C34801F01DF8C34B5B6803F00C03042BC7
:101214004BD0C04B5B6803F00C03082B40D06368D1
:10122400B3F5803F00F09E80002B40F0A18003F1D5
:10123400804303F504331A6822F480321A601A6872
:1012440022F480221A606368002B00F0AB80FFF761
:10125400BDF805464FF4003393FAA3F3AD4B1A6877
:101264004FF4003393FAA3F3B3FA83F303F01F03A9
:1012740022FA03F313F0010F2ED1FFF7A7F8401B56
:101284006428E7D9032021E34FF48771A04800F0D4
:10129400D7FFA2E740F20F119D4800F0D1FFA1E76C
:1012A4009C4B5B6813F4803FB9D04FF4003393FA3E
:1012B400A3F3984B1A684FF4003393FAA3F3B3FAE9
:1012C40083F303F01F0322FA03F313F0010F03D097
:1012D4006368002B00F0F382236813F0020F00F020
:1012E400AD802369012B04D940F24911884800F0EC
:1012F400A7FF63691F2B72D8864B5B6813F00C0F32
:1013040078D0844B5B6803F00C03082B6DD0236901
:10131400002B00F0D680012292FAA2F3B3FA83F3F1
:101324009B0003F1844303F584031A60FFF74EF82E
:101334000546022393FAA3F3764B1A68022393FA21
:10134400A3F3B3FA83F303F01F0322FA03F313F0B6
:10135400010F40F0A780FFF739F8401B0228E8D9B5
:101364000320B3E26B4A136843F4803313606AE7E3
:10137400B3F5A02F09D0674B1A6822F480321A60A3
:101384001A6822F480221A605DE703F18043A3F512
:101394003C331A6842F480221A601A6842F480329C
:1013A4001A6050E7FFF712F805464FF4003393FA3A
:1013B400A3F3584B1A684FF4003393FAA3F3B3FA28
:1013C40083F303F01F0322FA03F313F0010F83D016
:1013D400FEF7FCFF401B6428E7D9032076E24FF4B4
:1013E400A5714B4800F02CFF86E74A4B5B6813F469
:1013F400803F8CD1022393FAA3F3464B1A6802234D
:1014040093FAA3F3B3FA83F303F01F0322FA03F36B
:1014140013F0010F04D02369012B01D0012055E200
:101424003C48036823F0F8036169F82292FAA2F2B7
:10143400B2FA82F201FA02F213430360236813F052
:10144400080F6ED0A369012B04D94FF4C57130483D
:1014540000F0F6FEA369002B00F09080012292FABE
:10146400A2F3B3FA83F32C4941F82320FEF7AEFF2D
:101474000546022393FAA3F293FAA3F2254A526A89
:1014840093FAA3F3B3FA83F303F01F0322FA03F3EB
:1014940013F0010F42D1FEF799FF401B0228E8D94F
:1014A400032013E21B48036823F0F8036169F82260
:1014B40092FAA2F2B2FA82F201FA02F21343036040
:1014C400BCE7012393FAA3F3B3FA83F39B0003F17C
:1014D400844303F5840300221A60FEF777FF054670
:1014E400022393FAA3F30B4B1A68022393FAA3F390
:1014F400B3FA83F303F01F0322FA03F313F0010F8B
:101504009CD0FEF763FF401B0228E9D90320DDE1EC
:101514008831000800100240800442420120FEF796
:101524005BFF236813F0040F00F0CE80E368012B07
:1015340006D9052B04D040F2B711B64800F080FE5E
:10154400B54BDA6942F08052DA61DB6903F080530B
:101554000193019BB14A136843F480731360FEF74F
:1015640035FF0546AD4B1B6813F4807F2BD1FEF786
:101574002DFF401B6428F5D90320A7E1012393FA2A
:10158400A3F3B3FA83F30021A54A42F82310FEF72C
:101594001DFF0546022393FAA3F293FAA3F29E4A8F
:1015A400526A93FAA3F3B3FA83F303F01F0322FA04
:1015B40003F313F0010FB4D0FEF708FF401B022819
:1015C400E8D9032082E1E368012B13D0C3B903F106
:1015D400804303F504331A6A22F001021A621A6A7C
:1015E40022F004021A62E368002B44D0FEF7EEFEF8
:1015F400054631E0884A136A43F001031362F2E7B7
:10160400052B09D0844B1A6A22F001021A621A6A65
:1016140022F004021A62E6E77F4B1A6A42F00402DF
:101624001A621A6A42F001021A62DCE77A4B1A6AF9
:10163400022393FAA3F3B3FA83F303F01F0322FA0A
:1016440003F313F0010F3FD1FEF7C0FE401B41F23C
:101654008833984200F23581022393FAA3F293FA75
:10166400A3F3B3FA83F35B0943F00203022BDDD047
:10167400694B5A6ADCE7FEF7A9FE054615E0664B9E
:101684001A6A022393FAA3F3B3FA83F303F01F0352
:1016940022FA03F313F0010F16D0FEF797FE401B56
:1016A40041F28833984200F20E81022393FAA3F2A6
:1016B40093FAA3F3B3FA83F35B0943F00203022B17
:1016C400DDD0554B5A6ADCE7E369022B37D8E3696E
:1016D400002B00F0FA80504A526802F00C02082AEB
:1016E40000F0F680022B30D04FF0807393FAA3F30E
:1016F400B3FA83F39B0003F1844303F584030022CC
:101704001A60FEF763FE04464FF0007393FAA3F3E6
:10171400414B1A684FF0007393FAA3F3B3FA83F3BF
:1017240003F01F0322FA03F313F0010F00F0C58046
:10173400FEF74CFE001B0228E6D90320C6E040F267
:101744004721344800F07CFDC1E7236A3BB1B3F57F
:10175400803F04D04FF414712E4800F071FD636A89
:1017640073B3B3F5802F2BD0B3F5002F28D0B3F586
:10177400402F25D0B3F5801F22D0B3F5A01F1FD072
:10178400B3F5C01F1CD0B3F5E01F19D0B3F5001F8B
:1017940016D0B3F5101F13D0B3F5201F10D0B3F536
:1017A400301F0DD0B3F5401F0AD0B3F5501F07D03A
:1017B400B3F5601F04D040F25121164800F040FDFB
:1017C4004FF0807393FAA3F3B3FA83F39B0003F10E
:1017D400844303F5840300221A60FEF7F7FD0546EF
:1017E4004FF0007393FAA3F30B4B1A684FF0007396
:1017F40093FAA3F3B3FA83F303F01F0322FA03F378
:1018040013F0010F0ED0FEF7E1FD401B0228E7D9CB
:1018140003205BE0883100080010024000700040A3
:1018240080044242236AB3F5803F32D029494B6891
:1018340023F47413226A606A024313434B604FF02B
:10184400807393FAA3F3B3FA83F39B0003F1844305
:1018540003F5840301221A60FEF7B8FD04464FF035
:10186400007393FAA3F31B4B1A684FF0007393FAB7
:10187400A3F3B3FA83F303F01F0322FA03F313F081
:10188400010F18D1FEF7A2FD001B0228E7D903209F
:101894001CE0A3683BB1B3F5003F04D040F26721DC
:1018A4000D4800F0CDFC0B4A536823F40033A168C3
:1018B4000B435360BAE7002008E0002006E0012053
:1018C40004E0032002E0032000E0002003B030BD68
:1018D4000120FBE7001002408831000830B486B0D4
:1018E4001D4D02AC28686968AA68EB680FC42B8A8E
:1018F400ADF80430194B5B6803F00C02082A27D1B9
:1019040003F470124FF4701191FAA1F1B1FA81F15C
:10191400CA4006A90A4412F8100C13F4803F03D1FC
:101924000F4B03FB00F014E00C4B5B6803F4003333
:101934004FF4003292FAA2F2B2FA82F2D3400B448C
:1019440013F8142C074BB3FBF2F303FB00F000E095
:10195400044806B030BC70477431000800100240DF
:1019640000093D0000127A0070B50D460446C0B16E
:10197400236813F00F0F1AD0022D1ED89B4B1B683F
:1019840003F007039D421ED9984A136823F0070306
:101994002B431360136803F007039D4213D0012007
:1019A40070BD4FF42F71924800F04AFCE0E740F21A
:1019B400BD218F4800F044FCDEE740F2BE218C4894
:1019C40000F03EFCDAE7236813F0020F1DD0A36891
:1019D400A3B1802B12D0902B10D0A02B0ED0B02B03
:1019E4000CD0C02B0AD0D02B08D0E02B06D0F02B83
:1019F40004D040F2D7217E4800F022FC7D4A53688F
:101A040023F0F003A1680B435360236813F0010F24
:101A140000F084806368022B32D86368012B35D0D0
:101A2400022B48D0022292FAA2F2724A11680222D0
:101A340092FAA2F2B2FA82F202F01F0221FA02F240
:101A440012F0010F00F0D0806A494A6822F00302C4
:101A540013434B60FEF7BAFC06466368012B3FD084
:101A6400022B4CD0634B5B6813F00C0F56D0FEF77F
:101A7400ADFC801B41F288339842F3D9032070BD3A
:101A840040F2DE215A4800F0DBFBC6E74FF4003297
:101A940092FAA2F2574A11684FF4003292FAA2F273
:101AA400B2FA82F202F01F0221FA02F212F0010FDE
:101AB400CAD1012070BD4FF0007292FAA2F24D4AD1
:101AC40011684FF0007292FAA2F2B2FA82F202F0B6
:101AD4001F0221FA02F212F0010FB5D1012070BDEC
:101AE400444B5B6803F00C03042B17D0FEF76EFC29
:101AF400801B41F288339842F2D9032070BD3D4BDC
:101B04005B6803F00C03082B08D0FEF75FFC801B16
:101B140041F288339842F2D9032070BD334B1B68DD
:101B240003F007039D420CD2304A136823F00703E5
:101B34002B431360136803F007039D4201D0012077
:101B440070BD236813F0040F19D0E36883B1B3F5B3
:101B5400806F0DD0B3F5A06F0AD0B3F5C06F07D076
:101B6400B3F5E06F04D040F23231214800F068FB55
:101B7400204A536823F4E063E1680B43536023680D
:101B840013F0080F1AD0236983B1B3F5806F0DD019
:101B9400B3F5A06F0AD0B3F5C06F07D0B3F5E06F0B
:101BA40004D040F23931124800F04AFB114A53681C
:101BB40023F46053216943EAC1035360FFF78EFEA7
:101BC4000C4B5B6803F0F003F02292FAA2F2B2FA33
:101BD40082F2D340084AD35CD840084B18600020F6
:101BE400FEF7C6FB002070BD012070BD002002403E
:101BF4008831000800100240FC3200080C0000206C
:101C0400014B1868704700BF0C000020FEE700007D
:101C140008B503460C4A12685AB10B4A10680333DC
:101C240023F003030344094A934206D8064A136087
:101C340008BD0749044A1160EFE700F085FB0C2357
:101C440003604FF0FF3008BD80000020004C0020EE
:101C5400A801002001230360014B0B60704700BF03
:101C6400040000200FB400B583B004AB53F8042B78
:101C740001938021064800F031FC002803DD014671
:101C8400034800F037F803B05DF804EB04B0704784
:101C9400880000202DE9F04385B004460F464356E2
:101CA4000BB10E461EE0042528462146ABBE044671
:101CB400384605B0BDE8F08314F9011B04AA1A44A0
:101CC40002F8101C0133AB42F6D304AA13440022D9
:101CD40003F8102CE9464FF0040840464946ABBED1
:101CE4008046761B002EE3D03546102E28BF1025E3
:101CF4000023E8E708B5FFF7CDFF08BD08B500F0FD
:101D040099F8024B024A9A6008BD00BF00ED00E05A
:101D14000000000808B500F0B3F808BDF8B50446A3
:101D24000D4617461E462748FFF79CFF21682648A4
:101D3400FFF798FF61682548FFF794FFA1682448DE
:101D4400FFF790FFE1682348FFF78CFF21692248E1
:101D5400FFF788FF61692148FFF784FFA1692048E4
:101D6400FFF780FFE1691F48FFF77CFF1E48FFF77C
:101D740079FF29461D48FFF775FF1D4CE16A1D4890
:101D8400FFF770FF216B1C48FFF76CFFE16B1B48EA
:101D9400FFF768FF15F0800F0AD115F4004F0CD13E
:101DA4001748FFF75FFF06991648FFF75BFFF8BD7A
:101DB40039461548FFF756FFEFE731461348FFF75A
:101DC40051FFEDE7B4310008C4310008D4310008F4
:101DD400E4310008F4310008043200081432000829
:101DE400243200083432000844320008503200081B
:101DF40000ED00E060320008703200088032000814
:101E0400B0320008B832000890320008A03200084E
:101E140083691A888A4201D0002070470268033A15
:101E2400012A03D8023383610120704700207047E0
:101E3400FEE700000F4B1A6842F001021A6059686D
:101E44000D4A0A405A601A6822F0847222F48032E1
:101E54001A601A6822F480221A605A6822F4FE0278
:101E64005A604FF41F029A604FF00062034B9A606D
:101E7400704700BF001002400000FFF800ED00E0D2
:101E84001F4B5B6803F00C03042B14D0082B16D0F3
:101E94001BB11C4A1C4B1A6002E01A4A1A4B1A6006
:101EA400174B5B68C3F30313184AD15C164A1368D3
:101EB400CB4013607047134A134B1A60F0E7104A83
:101EC40053685268C3F38343023312F4803F0AD049
:101ED4000B4A526812F4003F0BD00D4A02FB03F385
:101EE400094A1360DCE70A4A02FB03F3064A13605B
:101EF400D6E7044A02FB03F3034A1360D0E700BFAA
:101F04000010024000127A000C000020FC3200088D
:101F140000093D0010B588B0174B9A6942F01002D1
:101F24009A619A6902F010020192019A9A6942F048
:101F340020029A619A6902F020020292029A9A6936
:101F440042F004029A619B6903F004030393039B28
:101F54000A4C00224FF400512046FFF71FF94FF4BA
:101F640000530493012305930223079304A92046F5
:101F7400FEF782FF08B010BD0010024000100140BF
:101F840008B5002211461420FEF7E2FE1420FEF7E5
:101F940023FF08BDFEE7000000B58BB01F48204BAF
:101FA4000363204B4363204B03600C2343600023F3
:101FB4008360C3604FF4602202614FF4E002426127
:101FC4008361C361036243628362C362FEF7CAFA38
:101FD40000BB00230593069301220792009301930B
:101FE40002930393049308920E23099369460B48C2
:101FF400FEF700FA80B9094B1A6B40F22311116005
:10200400196B00224A60196BCA601B6B9A600BB093
:102014005DF804FBFFF7BEFFFFF7BCFF640100207F
:10202400300100200C0100200064004000B591B094
:10203400012206924FF480330793002108910A92FB
:1020440002220D920E934FF4E0130F9306A8FFF7AC
:10205400BFF808BB0F2301930221029100230393CD
:102064004FF480620492059301A8FFF77DFCA8B9A0
:10207400FFF7C6FD0A4BA3FB00308009FEF7C2FE42
:102084000420FEF7D5FE002211464FF0FF30FEF784
:102094005FFE11B05DF804FBFFF77CFFFFF77AFFEA
:1020A400D34D62102DE9F04182B0FEF775F9FFF7C8
:1020B400BDFFFFF72FFFFFF76FFFFFF761FF002161
:1020C4004348FEF769FC00283FD100252E46414BCA
:1020D4001C78002C3BD000241C70FEF777F93E4B93
:1020E400186022464FF400513C48FFF757F83C4B28
:1020F40093E803000090ADF80410090C8DF8061065
:10210400334C266B684600F083F93061206B6946D6
:10211400143000F01FF90A212046FEF727FB0126A0
:10212400FEF754F9401B41F28833984238D82D4BBE
:102134001B78002BCBD000212548FEF72DFC00286E
:10214400C5D10022274B1A70C1E7FFF723FFFEF722
:102154003DF9214B1B68C01A234B1B689842DFD9F9
:10216400002EDDD001224FF400511C48FFF716F871
:102174001E4B93E803008DE80300154FD7F8308019
:10218400684600F045F9C8F81000386B6946143009
:1021940000F0E0F864213846FEF7E8FA2646BFE787
:1021A400FEF714F90546124B186800909B88ADF8A9
:1021B4000430074C236B06221A61206B69461430E5
:1021C40000F0C8F864212046FEF7D0FAAFE700BF5C
:1021D400640100205001002054010020001001403F
:1021E40014330008080100204C0100201C330008AF
:1021F4000C330008436B196840F22512914203D056
:1022040001220C4B1A7070471A7DFE2AF8D1012165
:10221400094A11701A69052AF2D1597D9A7D12046E
:1022240042EA0162D97D42EA01221B7E1343034A3A
:102234001360E5E708010020500100204C01002054
:102244007047000000B583B01C4B9A6942F001024C
:102254009A619B6903F001030193019B0320FEF73C
:1022640059FD002211466FF00B00FEF771FD0022AC
:1022740011466FF00A00FEF76BFD002211466FF065
:102284000900FEF765FD002211466FF00400FEF719
:102294005FFD002211466FF00300FEF759FD002296
:1022A40011466FF00100FEF753FD002211464FF076
:1022B400FF30FEF74DFD03B05DF804FB0010024053
:1022C4000268144B9A4200D0704710B586B003F5EB
:1022D400D633DA6942F00072DA61DB6903F0007325
:1022E4000193019B4FF4006302930023039304932F
:1022F400094C02A92046FEF7BFFD4FF48053029318
:10230400022303930323059302A92046FEF7B4FD99
:1023140006B010BD00640040000801407047FEE7AD
:10232400FEE7FEE7FEE770477047704708B5FEF723
:1023340045F8FEF79CFD08BD08B50248FEF734FCDD
:1023440008BD00BF64010020014B1868704700BF3E
:102354001000002080EA0102844612F0030F4FD1DE
:1023640011F0030F32D14DF8044D11F0040F51F860
:10237400043B0BD0A3F101329A4312F0803F04BF17
:102384004CF8043B51F8043B16D100BF51F8044B00
:10239400A3F101329A4312F0803FA4F101320BD130
:1023A4004CF8043BA24312F0803F04BF51F8043BB5
:1023B4004CF8044BEAD023460CF8013B13F0FF0F12
:1023C4004FEA3323F8D15DF8044B704711F0010F45
:1023D40006D011F8012B0CF8012B002A08BF704716
:1023E40011F0020FBFD031F8022B12F0FF0F16BF0D
:1023F4002CF8022B8CF8002012F47F4FB3D17047D5
:1024040011F8012B0CF8012B002AF9D1704700BFF9
:1024140020F0030110F00300C0F1000051F8043B68
:1024240000F1040C4FEACC0C6FF000021CBF22FA3E
:102434000CF213434FF0010C4CEA0C2C4CEA0C4CFC
:10244400A3EB0C0222EA030212EACC1204BF51F8F5
:10245400043B0430F4D0C2F1000102EA0102B2FAF2
:1024640082F2C2F11F0200EBD200704770B5141E55
:102474009AB005462CDB1A464FF40273009104917E
:10248400ADF80C304FF6FF760FD0013C1E9B694629
:1024940002940594ADF80E6000F010F9421C10DBB4
:1024A4000022009B1A701AB070BD1E9B69460294EC
:1024B4000594ADF80E6000F001F9431C04DB1AB07A
:1024C40070BD8B232B60EBE78B232B601AB070BDA0
:1024D4008B234FF0FF302B60F1E700BF10B5064CA3
:1024E40082B00093246813460A4601462046FFF74B
:1024F400BDFF02B010BD00BF100000202DE9F04761
:102504008E680C469E421D46174628D88046888908
:1025140010F4906F32D04E692368096906EB4606C1
:10252400A3EB010906EBD6766B1C76104B44B34241
:10253400324684BF1E463246430522D511464046E4
:1025440000F02EFD824680B34A46216900F006FC65
:10255400A38923F4906343F08003A38116E01E460D
:1025640008682A46394600F06FFCA2682368961B67
:102574002B44A66023600020BDE8F0870868354638
:10258400EFE7404600F06AFD824650B1A6EB09032E
:102594000AEB09006661C4F810A02060A3602E460F
:1025A400DFE72169404600F0B3FC0C23C8F8003093
:1025B400A3894FF0FF3043F04003A381BDE8F087C7
:1025C4002DE9F04F936883B09046002B70D082467B
:1025D4000C4617688D68086842E0A38913F4906F6D
:1025E4002ED06569216905EB4505A0EB010B05EBD0
:1025F400D5750BF101006D103044A8422A4684BF02
:1026040005462A465B0538D51146504600F0C8FCFD
:1026140000283CD05A462169019000F09FFBA28912
:10262400019B22F4906242F08002A281A5EB0B028E
:1026340003EB0B006561B346354623612060A2605D
:102644005A46494600F000FCD8F80830A2682068D1
:10265400551B58449E1BA5602060C8F808603EB313
:102664007E683B460837002EFAD0AE42D3F800907D
:10267400AB46B2D23546B346E2E7504600F0EEFC34
:1026840003460028D2D12169504600F041FC0C23B6
:1026940000224FF0FF30CAF80030A38943F0400312
:1026A400A381C8F80820C8F8042003B0BDE8F08F5F
:1026B4000020C8F8040003B0BDE8F08F2DE9F04F06
:1026C4000F4689899DB00C0691460393804603D535
:1026D4003B69002B00F0FC803023002020218DF882
:1026E4002A3099F800300125814C09908DF8291081
:1026F400002B00F09180252BCA4603D119E0252B2D
:1027040000F093801AF8013F002BF8D1BAEB090BC3
:1027140000F082804A465B4639464046FFF7EEFEAB
:10272400013079D0099B9AF800205B440993002A70
:1027340072D000234FF0FF320AF1010A0493079389
:1027440006938DF853301A93059205E0049B001B01
:1027540005FA00F0184304909AF800100522204668
:1027640000F0B6FAD1460AF1010A0028EED1049B22
:10277400D80644BF20228DF85320190748BF2B22C6
:1027840099F8001048BF8DF853202A2971D0A1F17F
:102794003002092A0BD8079B19F8011F03EB8303A6
:1027A40002EB4303A1F13002092AF5D907932E293C
:1027B40046D0DFF84CA10322504600F089FA48B114
:1027C4004022049BA0EB0A0002FA00F0034309F143
:1027D4000109049399F800300622194645488DF8FA
:1027E400283009F1010900F073FA00284DD0424B5A
:1027F400FBB103AB00933A46404B04A94046AFF308
:1028040000800646721C07D0099B3344099399F84B
:102814000030002B7FF46FAFBB895B064CBF4FF0D9
:10282400FF3009981DB0BDE8F08FBAEB090B80D0DA
:1028340070E7039B073323F0070308330393E3E7AD
:1028440099F8011009F101002A2928D00023A1F1E7
:102854003002092A05938146ABD819F8011F03EB0E
:10286400830302EB4303A1F13002092AF5D905934E
:102874009FE7039A116804320029039222DB07912F
:1028840099F8011009F1010991E703AB00933A4665
:102894001A4B04A9404600F0CDF80646B2E7039B64
:1028A40009F102001A680433002A0393B8BF4FF0F9
:1028B400FF330592AEBF99F8021099F80210059300
:1028C400814676E7494243F0020307910493D7E730
:1028D400402100F065FB3860386110B140237B6112
:1028E400FAE60C234FF0FF30C8F800309AE700BF37
:1028F40028330008343300080000000001250008D4
:10290400303300082DE9F0470C460969A568914663
:102914008D42B8BF0D46156094F8431006461F4615
:10292400DDF8208011B16A1CC9F8002023689906DB
:102934005DD5D9F800200232C9F80020236813F0CD
:10294400060F19461DD1E1688A1A002AD8BF194614
:1029540017DD002504F1190A05E0E368D9F8002021
:102964009B1AAB420CDD0123524639463046C04720
:10297400013005F10105F0D14FF0FF30BDE8F087DB
:10298400216894F84330003318BF01238A060AD51E
:102994003021E21882F8431094F845105A1C22445E
:1029A40082F84310023304F1430239463046C047EB
:1029B4000130E1D0236803F00603042B29D0A36877
:1029C40022699342C8BF4FF0000930DD9B1A994435
:1029D40000251A3401E04D4529D001232246394609
:1029E4003046C047013005F10105F4D1C4E713F0C6
:1029F400060F08D1E168D9F800208A1A002AD8BF46
:102A04001946A6DCBDE794F84330003318BF012310
:102A1400C9E7D9F80010E068A3682269A0EB0109AE
:102A2400934229EAE979D1DCB9F1000FD0D1002031
:102A3400BDE8F0872DE9F0430C46097E85B06E2988
:102A440006461746984604F1430C0C9855D00FD807
:102A5400632900F0198100F2D48000295CD0582940
:102A640040F0E68084F845102268DFF85CE213E069
:102A7400732900F0FB8000F289806F2900F0E28066
:102A8400702940F0D580226842F020022260782329
:102A9400DFF838E284F845300368150603F10401D1
:102AA40000F1FD8055064BBF1B881B680160016067
:102AB400D00744BF42F020022260002B40F09380F4
:102AC4001021226822F020022260002284F8432090
:102AD40060680028A060C0F28B80226822F00402A3
:102AE4002260002B66D1002840F0848065460829C6
:102AF4006ED0ACEB0503236111E023681A0600F1E4
:102B0400D18013F0400F0368626903F1040101608E
:102B14001B6814BF1A801A60002365462361CDF830
:102B240000803B4603AA21463046FFF7EBFE013006
:102B340021D02A46236939463046C04701301AD08D
:102B44002368E06813F0020F039B19D0C21A002A0D
:102B540016DD002504F1190904E0E068039BC21A9C
:102B6400AA420DDD01234A4639463046C0470130AA
:102B740005F10105F1D14FF0FF3005B0BDE8F08358
:102B84009842B8BF184605B0BDE8F083752959D0FE
:102B940078294DD122687AE72D2061685B420029AB
:102BA40084F84300A16020DB0A2122F00402DFF84C
:102BB40018E122606546B3FBF1F201FB12331EF803
:102BC4000300134605F8010D002AF4D1082990D119
:102BD4002368D9078DD5626823699A4289DC30233A
:102BE400013D2B7085E710216FE70A21DFF8D8E05B
:102BF400002BDFD19EF8003004F1420584F8423006
:102C040075E7642901D0692912D122680368150681
:102C140003F1040152D455064BBFB3F900301B68CD
:102C240001600160002BB7DB0A21DFF89CE04FE76D
:102C3400012384F84210236104F14205002384F83F
:102C440043306CE723681A0633D413F0400F03684B
:102C540003F1040215BF1B881B68026002606F2920
:102C640014BF0A210821DFF860E02EE703686268D8
:102C7400191D01601D680021284600F029F800B3E1
:102C8400401B60602061D9E70122036804F142051A
:102C9400191D1B68016084F842302261CEE701608F
:102CA4001B6805E703686269191D01601B681A60E7
:102CB40032E703681A1D02601B68D0E701601B68D5
:102CC400B0E76068DEE700BF3C330008503300081B
:102CD400830770B4CDB23DD0541E0AB30378AB421F
:102CE4001FD0431C05E014F1FF3419D30278AA4223
:102CF40017D013F0030F184603F10103F3D1032C8B
:102D040011D84CB30378AB420BD00444431C02E00B
:102D14000278AA4205D09C42184603F10103F7D178
:102D2400002070BC7047090289B2294341EA01417D
:102D3400036806464B40A3F1013222EA030313F071
:102D4400803F00F1040003D1043C032CF0D8D8E701
:102D54003046D7E71446D2E72046E2E7844641EA04
:102D6400000313F0030349D1403A23D30B680360F3
:102D74004B6843608B688360CB68C3600B690361F5
:102D84004B6943618B698361CB69C3610B6A0362DD
:102D94004B6A43628B6A8362CB6AC3620B6B0363C5
:102DA4004B6B43638B6B8363CB6BC36340304031AA
:102DB400403ADBD230320BD30B6803604B6843607C
:102DC4008B688360CB68C36010301031103AF3D243
:102DD4000C3205D351F8043B40F8043B043AF9D2D1
:102DE400043208D0D2071CBF11F8013B00F8013BA4
:102DF40001D30B8803806046704700BF082A13D3B1
:102E04008B07B1D010F00303AED0C3F10403D21A80
:102E1400DB071CBF11F8013B00F8013BA4D331F8D8
:102E2400023B20F8023B9FE7043AD9D3013A11F858
:102E3400013B00F8013BF9D20B7803704B784370E7
:102E44008B788370604670478842F0B50DD98B1833
:102E540098420AD28418002A51D0224613F8014D10
:102E6400994202F8014DF9D1F0BD0F2A48D941EA3F
:102E740000039B0746D1154600F1100401F110032D
:102E840053F8106C103D44F8106C53F80C6C0F2D73
:102E940044F80C6C53F8086C04F1100444F8186CF2
:102EA40053F8046C03F1100344F8146CE8D8A2F14D
:102EB400100323F00F0302F00F0E1033BEF1030FC3
:102EC4001944034421D90E4674461D1F56F8047B49
:102ED400043C032C45F8047FF8D8AEF1040424F034
:102EE400030404342144234402F0030262B1013B8D
:102EF4000A4411F8014B8A4203F8014FF9D1F0BD9D
:102F04000346F3E70346F2E7F0BD7246EEE700BF7F
:102F140091B151F8043C0439002BB8BFC9181F4BB8
:102F24001A68FAB18A4230B40AD908680C18A24265
:102F340026D04A60196030BC70478B4203D81A46C9
:102F44005368002BF9D1146815198D420DD006D899
:102F540008680C189C4219D04B605160EBE70C23B5
:102F64000360E8E74A601960704709680C44111966
:102F740099421460DFD10ACB0C4414605360DAE741
:102F840014685268204481E80500D3E71C685B6834
:102F9400204481E809005160CDE700BF58010020BA
:102FA40070B5CC1C24F0030408340C2C38BF0C245A
:102FB400002C06463BDBA14239D8274D296851B184
:102FC4000B681B1B04D436E013681B1B1AD511466F
:102FD4004A68002AF8D16968002937D0214630466A
:102FE40000F064F8431C22D0C51C25F00305A84258
:102FF40005D0291A304600F059F8013017D02A4676
:103004002C6004E00B2B0DD913601A44146002F1F8
:103014000B0020F00700131DC31A02D05942D150EF
:1030240070BD70BD8A420ED053684B60EFE70C232D
:103034000020336070BD0B2B03D80A464B682B600D
:10304400E5E70A46E0E70B460A46F8E7304600F0B3
:103054002DF86860C2E700BF58010020F8B5144697
:10306400F9B1C2B106460D4600F032F8844201D8E7
:103074002846F8BD21463046FFF792FF074670B157
:1030840022462946FFF76AFE29463D463046FFF7A9
:103094003FFF2846F8BDFFF73BFF2546E8E7054616
:1030A400E6E71146BDE8F840FFF77ABF38B50023DC
:1030B400064C054608462360FEF7AAFD431C00D0D3
:1030C40038BD2368002BFBD02B6038BD6001002085
:1030D40051F8040C0028A0F10400BCBF0B58C01820
:1030E400704700BF2E2E2F73797374656D2F737222
:1030F400632F73746D3332663178782F73746D3344
:1031040032663178785F68616C5F63616E2E63004C
:103114002E2E2F73797374656D2F7372632F7374EE
:103124006D3332663178782F73746D33326631784B
:10313400785F68616C5F636F727465782E630000FA
:103144002E2E2F73797374656D2F7372632F7374BE
:103154006D3332663178782F73746D33326631781B
:10316400785F68616C5F6770696F2E6300000000B0
:1031740002030405060708090A0B0C0D0E0F1010B4
:10318400010200002E2E2F73797374656D2F7372F4
:10319400632F73746D3332663178782F73746D33A3
:1031A40032663178785F68616C5F7263632E6300A6
:1031B400537461636B206672616D653A0A000000A6
:1031C400205230203D2020253038580A00000000CD
:1031D400205231203D2020253038580A00000000BC
:1031E400205232203D2020253038580A00000000AB
:1031F400205233203D2020253038580A000000009A
:1032040020523132203D20253038580A0000000079
:10321400204C52203D2020253038580A0000000060
:10322400205043203D2020253038580A000000005B
:1032340020505352203D20253038580A0000000009
:103244004653522F4641523A0A0000002043465347
:1032540052203D2020253038580A0000204846538B
:1032640052203D2020253038580A0000204446537F
:1032740052203D2020253038580A00002041465372
:1032840052203D2020253038580A0000204D4D465C
:103294004152203D20253038580A00002042464142
:1032A40052203D2020253038580A00004D697363B0
:1032B4000A000000204C522F4558435F5245545594
:1032C400524E3D20253038580A0000005B48617298
:1032D400644661756C745D0A000000005B4275739E
:1032E4004661756C745D0A005B5573616765466180
:1032F400756C745D0A00000000000000000000000E
:103304000102030406070809DEADBEEFFEED00006E
:103314004C4544204F4E00004C4544204F46460047
:1033240043000000232D302B20000000686C4C006B
:1033340065666745464700003031323334353637E9
:1033440038394142434445460000000030313233AD
:1033540034353637383961626364656600000000CD
:1033640078563412840000200000000000A24A04B1
:103374001400002000000000000000000000000015
:103384000000000000000000000000000000000039
:1033940000000000243300080000000000000000CA
:1033A4000000000000000000000000000000000019
:1033B4000000000000000000000000000000000009
:1033C40000000000000000000000000000000000F9
:0833D40000000000325476985D
:040000050800010DE1
:00000001FF
