:020000040800F2
:1000000000500020C5010008F9160008FB16000882
:10001000FD160008FF160008011700080000000088
:1000200000000000000000000000000003170008AE
:10003000051700080000000007170008091700084E
:1000400095120008951200089512000895120008F4
:1000500095120008951200089512000895120008E4
:1000600095120008951200089512000895120008D4
:1000700095120008951200089512000895120008C4
:1000800095120008951200089512000895120008B4
:10009000191700089512000895120008951200081B
:1000A0009512000895120008951200089512000894
:1000B0009512000895120008951200089512000884
:1000C0009512000895120008951200089512000874
:1000D0009512000895120008951200089512000864
:1000E0009512000895120008951200080000000003
:1000F0000000000000000000000000000000000000
:1001000000000000000000005FF808F107B501F0F2
:1001100093F8214A214B22498B4226D30021214BBF
:10012000214A934226D301F093F801A9684601F0D1
:100130007BF800251D4E1E4CA41BA410AC421CDCF9
:1001400000251C4E1C4CA41BA410AC421ADC9DE8DC
:10015000030001F02DF90646184D194C641BA4103C
:10016000002C14DC304601F05BF852F8040F43F821
:10017000040BD1E743F8041BD3E756F82530984722
:100180000135DBE756F8253098470135DDE7013CBE
:1001900055F824309847E3E7701800080000002065
:1001A0000C0000200C000020A000002078020008B5
:1001B0007802000878020008780200087802000837
:1001C000780200081E480047FEE71EF0040F0CBF2F
:1001D000EFF30880EFF3098071461A4A104710B513
:1001E000084C236B9B070BD5E36A002B08DA4BF610
:1001F000AB6101F041F818B14FF00043E36210BD6C
:10020000FEE700BF00ED00E0FEE71EF0040F0CBFAC
:10021000EFF30880EFF3098071460B4A1047FEE7C1
:100220001EF0040F0CBFEFF30880EFF30980714656
:10023000064A1047FEE7FEE7FEE7FEE770470000CC
:100240000D010008DF0100081F0200083502000848
:1002500074180008000000200C000020741800082A
:1002600000000000000000000C000020A0000020A2
:08027000000000000000000086
:1002780010B5044600F0CAFF4FF47A73B0FBF3F0F0
:1002880000F060FB002221464FF0FF3000F01AFB1F
:10029800002010BD074A08B51368032043F0100377
:1002A800136000F0FDFA0020FFF7E2FF01F0B6F955
:1002B800002008BD00200240024A13680133136081
:1002C800704700BF0C000020014B1868704700BF42
:1002D8000C00002013B50190FFF7F6FF0446FFF766
:1002E800F3FF019B001B9842F9D302B010BD012215
:1002F800036870B5D3F800024D6A4C6920F47C504D
:1003080040EA052040F00100A240C3F80002D043B3
:10031800D3F81C520540C3F81C52CD6985BBD3F8ED
:100328000C52CE680540C3F80C528D8803EBC40408
:1003380045EA0645C4F840528E680D8845EA0645E8
:10034800C4F844528C696CBBD3F804420440C3F827
:1003580004420C6954BBD3F814422040C3F8140279
:10036800096A0020012902BFD3F81C120A43C3F806
:100378001C22D3F8002222F00102C3F8002270BD2B
:10038800012DDFD1D3F80C520E681543C3F80C5277
:100398008D8803EBC40445EA0645C4F840528E68CC
:1003A8008D89CBE7D3F804421443D0E7D3F814027D
:1003B8001043D3E770B5044600285FD090F8393071
:1003C80003F0FF021BB980F8382001F065F9022319
:1003D80084F8393023681A6822F002021A601A6811
:1003E80042F001021A60FFF76FFF0646226855685F
:1003F80015F0010544D05368D9073CD5A369E169D4
:10040800012B0CBF802300230129216A08BF43F078
:1004180040030129616A08BF43F020030129A16A4A
:1004280008BF43F010030129E16A08BF43F008033D
:100438000129116808BF43F0040321F0FC010B43B4
:100448001360E168A3680B4321690B4361690B439F
:10045800616801390B43D361136823F0010313600A
:10046800FFF732FF06462268556815F0010512D0DD
:100478005368DB0715D4042384F83930012070BD94
:10048800FFF722FF801B0A28B0D9032084F83850D0
:1004980084F8390070BDFFF717FF801B0A28E2D9DE
:1004A800F3E700200123E06384F8393070BD0000D1
:1004B8002DE9F84390F838300446012B0E467AD0DF
:1004C800012380F8383090F839300168222B0CBFAE
:1004D8003223122380F839308B6858016ED48B6828
:1004E8001A0100F182808B6813F080537FD10422B7
:1004F80084F8383084F839200120BDE8F883106882
:10050800D3F8808147EA405040EA0800C3F88001E8
:100518001069D3F8847100F00F0027F00F071061FD
:10052800C3F88471D3F8847171443843C3F88401E3
:100538005069DFF8C480C1F888019269DFF8BC907F
:10054800C1F88C21D3F8802142F00102C3F8802140
:10055800FFF7BAFE0746274A23689B681DBB32EAA5
:10056800030314BF0123002363B994F83930002032
:10057800322B0CBF2223012384F8380084F8393049
:10058800BDE8F883731CE7D03EB90320002384F844
:10059800390084F83830BDE8F883FFF795FEC01BB2
:1005A8008642D8D2F1E7012D02D139EA0303D8E710
:1005B80038EA0303D5E70220BDE8F88300254FEAAF
:1005C800051E01EB0E03D3F8802102F00102C3F8E7
:1005D8008021226B9068D768002890D038435768EC
:1005E800D3F8808140EAC7008EE70125E7E70225B6
:1005F800E5E700BF03000004000003100003000843
:1006080090F8393010B5012B03D090F83930122BFF
:1006180026D190F83830012B22D0012380F83830C9
:1006280090F839300268122B0CBF3223222380F84D
:1006380039300023C363546944F40F4444F001047F
:10064800546180F8383029B95369084643F00203E9
:10065800536110BD5169184641F01001516110BD38
:10066800022010BD704770B504680A01A518D5F8B6
:10067800B061436B06F004069E60002E4FD1D5F89A
:10068800B061760D1E60D5F8B061224406F002060E
:10069800DE60D5F8B461D5F8B45106F00F06C5F39D
:1006A8000725DD61D2F8B8511E611D75D2F8B85121
:1006B8002D0A5D75D2F8B8512D0C9D75D2F8B85138
:1006C8002D0EDD75D2F8BC511D76D2F8BC512D0A1D
:1006D8005D76D2F8BC512D0C9D76D2F8BC21120E55
:1006E800DA7609BBE36843F02003E360636923F02B
:1006F8000203636190F83930222B01BF0268536905
:1007080023F40F43536190F83930322B0CBF122376
:10071800012380F8393000F05BFF002070BDD5F868
:10072800B061F6085E60AEE7236943F020032361F9
:10073800636923F01003DCE770470000036810B515
:100748005A690446D20722D59968524A8A4307D083
:100758009968514A8A4303D09968504A8A4316D106
:100768005A69204622F001025A6194F83920122A67
:1007780002BF5A6922F40F425A6194F83930322B79
:100788000CBF2223012384F83930FFF76BFF23685D
:100798005A69900706D5DB68990703D000212046DF
:1007A800FFF761FF23685A69D20606D51B699807C7
:1007B80003D001212046FFF756FF23689A69D10725
:1007C80009D55A69D20506D55A69100442BFE26BA9
:1007D80042F00102E2639A69910709D55A699205C4
:1007E80006D55A69100442BFE26B42F00202E26386
:1007F8009A69510709D55A69520506D55A691004EC
:1008080042BFE26B42F00402E2639A6912F0700F91
:1008180013D05A69110510D55A6912040DD59A6971
:1008280002F07002302A28D014D8102A1CD0202AAE
:100838001FD09A6922F070029A61E26B4AB15A6835
:10084800204642F004025A60012384F83930FFF749
:1008580073FF10BD502A14D0602A16D0402AE8D160
:10086800E26B42F0400202E0E26B42F00802E2630F
:10087800DFE7E26B42F01002F9E7E26B42F0200298
:10088800F5E7E26B42F08002F1E7E26B42F4807236
:10089800EDE700BF03000004000300080000031098
:1008A800074A0002D36800F4E06023F4E0631B0405
:1008B8001B0C43F0BF6343F400330343D36070471A
:1008C80000ED00E0174B30B5DC68C4F30224C4F136
:1008D8000703251D042B28BF0423062D4FF001050F
:1008E80098BF002405FA03F303F1FF3388BF033CE4
:1008F8001940A14005FA04F4013C2240002842EACC
:1009080001024FEA0212AFBF00F16040064B00F04F
:100918000F00D2B2A5BFD2B200F561401A5480F8D8
:10092800002330BD00ED00E014ED00E00123420992
:1009380000F01F0003FA00F0014B43F82200704753
:1009480000E100E00138B0F1807F0AD2F021064BC7
:10095800064A586082F823100020072298601A601F
:1009680070470120704700BF10E000E000ED00E094
:10097800044B04281A680CBF42F0040222F0040257
:100988001A60704710E000E0704708B5FFF7FCFFF9
:1009980008BD00002DE9F74F00221646654BDFF829
:1009A800A4E1DFF8A4C14FF001080C6808FA06F8C2
:1009B80008EA0404A0457FD14D68122D00F0AF80ED
:1009C80000F28880022D00F0A7807CD8002D00F06E
:1009D8008E80012D00F09E804FF00F09FF2C93BFF1
:1009E800824606F18045083DD0F800B092BFB500B8
:1009F800D0F804B0AD0009FA05F82BEA080802FAA5
:100A080005F588BF00F1040A48EA0505CAF8005050
:100A1800D1F804A01AF0805F4ED0474D464FAD691B
:100A280026F0030845F00105BD61BD6908F180485D
:100A380005F00105019508F5803806F0030B019DC6
:100A48004FEA8B0BD8F8085009FA0BF925EA09097F
:100A58003A4DA84268D005F58065A84266D005F5EC
:100A68008065A84264D005F58065A8420CBF0325BF
:100A7800042505FA0BF545EA0905C8F808501D686C
:100A88001AF4803F14BF2543A5431D605D681AF41E
:100A9800003F14BF2543A5435D609D681AF4801F7D
:100AA80014BF2543A5439D60DD681AF4001F14BFD9
:100AB8002C4325EA0404DC600136102E7FF473AF62
:100AC80003B0BDE8F08F032D22D0112D84D1CA6860
:100AD800043281E71A4FBD4209D012D8DFF86C9072
:100AE8004D4504D009F580394D457FF475AF8A68C6
:100AF800C2B1012A0CBFC0F81080C0F814800822C7
:100B08006AE77545F3D06545F1D0DFF84490EBE727
:100B1800002261E7CA685FE7CA6808325CE7CA680A
:100B28000C3259E7042257E70025A2E70125A0E780
:100B380002259EE700040140001002400008014021
:100B480000002110000031100000321000001110C8
:100B5800000022100AB1016170470904FBE7000098
:100B680003682DE9F743DE07054634D42B689C0754
:100B780000F1A7802B681A0723D5AA69BE4C012368
:100B8800BE49002A00F0158193FAA3F2B2FA82F264
:100B980041F82230FFF798FB0226074696FAA6F39B
:100BA80096FAA6F3626A96FAA6F3B3FA83F303F009
:100BB8001F0322FA03F3DB0740F1F4800120FFF75B
:100BC80089FB2B68590700F11481EA69002A40F073
:100BD8009381002020E0A84C636803F00C03042BE9
:100BE80007D0636803F00C03082B18D16368D80397
:100BF80015D54FF4003393FAA3F2226893FAA3F3BE
:100C0800B3FA83F303F01F0322FA03F3D907ADD530
:100C18006B68002BAAD1012003B0BDE8F0836B6894
:100C2800B3F5803F1CD1236843F480332360FFF77A
:100C38004BFB4FF40036074696FAA6F3226896FA5D
:100C4800A6F3B3FA83F303F01F0322FA03F3DA07D8
:100C58008CD4FFF739FBC01B6428EDD90320DBE7F0
:100C680003BB23684FF4003623F4803323602368E2
:100C780023F480232360FFF727FB074696FAA6F3A1
:100C8800226896FAA6F3B3FA83F303F01F0322FA55
:100C980003F3DB077FF56AAFFFF716FBC01B642879
:100CA800ECD9DBE7B3F5A02F236803D143F4802305
:100CB8002360B8E723F480332360236823F4802378
:100CC800B4E76D4C636813F00C0F07D0636803F04A
:100CD8000C03082B20D16368DF031DD4022393FA89
:100CE800A3F2226893FAA3F3B3FA83F303F01F0382
:100CF80022FA03F3DE0702D52B69012B8BD1216879
:100D0800F82393FAA3F3B3FA83F26B69934021F0C3
:100D1800F802134323602DE72A69012302B393FAEB
:100D2800A3F2B2FA82F2920002F1844202F584023E
:100D38001360FFF7C9FA0226074696FAA6F3226857
:100D480096FAA6F3B3FA83F303F01F0322FA03F328
:100D5800D807D4D4FFF7B8FAC01B0228EDD97DE72D
:100D680093FAA3F3B3FA83F39B0003F1844303F5E7
:100D780084031A60FFF7A8FA0226074696FAA6F334
:100D8800226896FAA6F3B3FA83F303F01F0322FA54
:100D980003F3D9077FF5EEAEFFF796FAC01B0228DA
:100DA800ECD95BE7FFF790FAC01B02287FF6F6AE96
:100DB80054E793FAA3F3B3FA83F341F82320FFF738
:100DC80083FA0226074696FAA6F396FAA6F3626A0B
:100DD80096FAA6F3B3FA83F303F01F0322FA03F398
:100DE800D8077FF5EEAEFFF76FFAC01B0228EAD9E5
:100DF80034E7214C224EE36943F08053E361E36911
:100E080003F080530193019B336843F4807333608C
:100E1800FFF75AFA07463368DA0526D5EB68012B3F
:100E280030D1236A43F001032362FFF74DFA02260B
:100E38008146B04641F2883796FAA6F396FAA6F3A9
:100E4800002B55D0226A98FAA8F3B3FA83F303F07B
:100E58001F0322FA03F3DB073FF5B7AEFFF734FAB7
:100E6800A0EB0900B842E7D9F8E6FFF72DFAC01B56
:100E78006428D0D9F2E600BF001002408004424244
:100E88000070004033BB236A022623F0010323626B
:100E9800236A374623F004032362FFF715FA41F269
:100EA8008839804696FAA6F396FAA6F313B3226A0F
:100EB80097FAA7F3B3FA83F303F01F0322FA03F3B5
:100EC800D8077FF582AEFFF7FFF9A0EB0800484589
:100ED800E8D9C3E6052B236A03D143F00403236250
:100EE8009FE723F001032362236A23F004039BE7AF
:100EF800626AA8E7626ADBE7444C636803F00C03A4
:100F0800082B3FF488AE022A4FF0807359D193FA28
:100F1800A3F3B3FA83F300229B0003F1844303F5A0
:100F280084031A60FFF7D0F94FF00076074696FA67
:100F3800A6F3226896FAA6F3B3FA83F303F01F0325
:100F480022FA03F3D90736D42B6AB3F5803F05D1CB
:100F58006268A96822F400320A4362606268696ABA
:100F680022F474120B43134363604FF0807393FAB7
:100F7800A3F3B3FA83F301229B0003F1844303F53F
:100F880084031A60FFF7A0F94FF00075064695FA3A
:100F9800A5F3226895FAA5F3B3FA83F303F01F03C8
:100FA80022FA03F3DA073FF514AEFFF78DF9801B39
:100FB8000228ECD952E6FFF787F9C01B0228B6D9F8
:100FC8004CE693FAA3F3B3FA83F300229B0003F1F0
:100FD800844303F584031A60FFF776F94FF0007530
:100FE800064695FAA5F3226895FAA5F3B3FA83F3B2
:100FF80003F01F0322FA03F3DB077FF5EAADFFF7DF
:1010080063F9801B0228ECD928E600BF00100240D3
:1010180030B5204B87B002AC03F1100522461868A2
:101028005968083303C2AB421446F7D101238DF83F
:1010380004300223184C8DF80530616801F00C0368
:10104800082B24D14FF4701393FAA3F3B3FA83F265
:1010580001F47013D34006AA134413F8100CCB0301
:1010680013D563684FF4003292FAA2F2B2FA82F210
:1010780003F40033D34006AA134413F8142C074B87
:10108800B3FBF2F3584307B030BD054BFAE703480A
:10109800F9E700BF3C1800080010024000127A006F
:1010A80000093D00554A2DE9F0411368064603F052
:1010B80007038B420D4630D3326894073AD4D007E1
:1010C80040D44E4A136803F007039D42C0F0848061
:1010D80032684B4C12F0040F40F08980130706D594
:1010E8006368326923F4605343EAC2036360FFF71D
:1010F8008FFF6368F02292FAA2F2B2FA82F203F04A
:10110800F003D3403F4AD35CD8403F4B18600020DF
:10111800FFF7AEF80020BDE8F081136823F007035D
:101128000B431360136803F007039942C4D00120EE
:10113800BDE8F0813249B0684B6823F0F0030343FF
:101148004B60BCE772682E4C012A28D14FF400335B
:1011580093FAA3F1216893FAA3F3B3FA83F303F0A4
:101168001F0321FA03F3D907E1D5636841F28838F0
:1011780023F003031A436260FFF7A6F87368074673
:10118800012B12D1636803F00C03042B99D0FFF7ED
:101198009BF8C01B4045F5D90320BDE8F081022A21
:1011A8000CBF4FF000730223D2E7022B0FD1636804
:1011B80003F00C03082B84D0FFF786F8C01B4045CA
:1011C800F5D9E9E7FFF780F8C01B4045E4D8636824
:1011D80013F00C0FF6D174E7136823F007032B43C1
:1011E8001360136803F007039D42A0D170E763689A
:1011F800F16823F4E0630B4363606FE7002002406B
:10120800001002404C18000808000020014B186824
:10121800704700BF0800002008B500F017F800006C
:1012280001230360014B0B60704700BF00000020E2
:1012380008B500F02DF8024B024A9A6008BD00BFBD
:1012480000ED00E00000000800F048B8BFF34F8F41
:101258000549064BCA6802F4E0621343CB60BFF34A
:101268004F8F00BFFDE700BF00ED00E00400FA0566
:1012780083691A888A4207D10268033A012A03D887
:10128800023383610120704700207047FEE70000A9
:101298000F4B1A6842F001021A6059680D4A0A4059
:1012A8005A601A6822F0847222F480321A601A682E
:1012B80022F480221A605A6822F4FE025A604FF41F
:1012C8001F029A604FF00062034B9A60704700BF9C
:1012D800001002400000FFF800ED00E0114A124B38
:1012E800516801F00C01042901D008290AD00F49DE
:1012F800196052680E49C2F30312895C1A68CA4021
:101308001A60704751685068C1F38341C00301F106
:10131800020102D407484143EAE750688003F9D440
:101328000248F8E7001002400800002000127A0086
:101338004C18000800093D004FF4803310B590B0F8
:1013480001220793002102240E934FF4E01306A80C
:10135800069208910A920D940F93FFF701FC00B1D1
:10136800FEE70F2301934FF4806303900590214615
:1013780001A802940493FFF795FE044600B1FEE726
:10138800FFF744FF4FF47A73B0FBF3F0FFF7DAFA94
:101398000420FFF7EDFA224621464FF0FF30FFF711
:1013A80091FA10B010BD00002DE9F0478EB0FEF79D
:1013B80071FFFFF7C1FF794B4FF400519A697848E4
:1013C80042F010029A619A69012602F01002019215
:1013D800019A9A69734C42F020029A619A692546EB
:1013E80002F020020292029A9A6942F004029A617B
:1013F8009B69002203F004030393039BFFF7AAFBF6
:101408004FF400530493022304A9654807930596F3
:10141800FFF7C0FA644B4FF460222363634B6448C0
:1014280063630C23226184E809004FF4E00200237F
:101438002046A360E3606261A361E36123626362A3
:10144800A362E362FEF7B6FF00B1FEE70E23099040
:101458000A900490059006900790089004A92046E9
:101468000B960C960D93FEF742FF044600B1FEE77B
:1014780040F223122B6B014683E81400D860986071
:1014880002461420FFF71EFA1420FFF74FFA2146F0
:101498002846FFF7B5F8002859D104460646454FB7
:1014A800DFF82481DFF8F89097F800A0BAF1000F70
:1014B8004ED000263E70FEF707FF32464FF400512B
:1014C800C8F800004846FFF745FB3B4B2E6B1868F1
:1014D8009A889B79049004A8ADF814208DF81630EA
:1014E80000F07AF93061286B04A9143000F016F97D
:1014F8000A212C48FEF7DCFF0126FEF7E5FE41F243
:101508008833001B984213D9FEF7DEFE2B4B0446A6
:1015180018689B880490ADF814300623286B04A93A
:101528000361143000F0FAF864211E48FEF7C0FF8A
:10153800DFF898A09AF80030002BB5D000211948A0
:10154800FFF75EF80028AFD18AF80000ACE7FEE7A5
:10155800FEF7BAFED8F80030C01A194B1B6898423B
:10156800CBD9002EC9D001224FF400514846FFF7CD
:10157800F1FA144A04AB106851682E6B03C304A82F
:1015880000F02AF93061286B04A9143000F0C6F87D
:1015980064210448FEF78CFF5646AEE7001002406F
:1015A80000100140600000203800002014000020D6
:1015B8000064004058000020621800085C18000809
:1015C80054000020691800085C0000201100002069
:1015D80040F22513426B1168994214D1137DFE2BFA
:1015E80011D101210A4B19701369052B0BD1937D79
:1015F800517D1B0443EA0163117ED27D0B4343EA0C
:101608000223044A13600122034B1A70704700BF7B
:101618005800002054000020110000201D4B07B581
:101628009A69032042F001029A619B6903F0010361
:101638000193019BFFF734F900226FF00B0011466C
:10164800FFF740F900226FF00A001146FFF73AF958
:1016580000226FF009001146FFF734F900226FF0FD
:1016680004001146FFF72EF900226FF0030011461F
:10167800FFF728F900226FF001001146FFF722F961
:1016880000224FF0FF301146FFF71CF903B05DF858
:1016980004FB00BF001002407FB50268124B9A425B
:1016A8001FD103F5D633DA6902A942F00072DA6174
:1016B800DB690E4803F000730193019B4FF400634C
:1016C8000293002303930493FFF764F94FF48053C4
:1016D800029302230393032302A904480593FFF707
:1016E80059F907B05DF804FB0064004000080140A8
:1016F8007047FEE7FEE7FEE7FEE770477047704772
:1017080008B5FEF7D9FDBDE80840FFF73EB900006F
:101718000148FFF713B800BF6000002080EA01020B
:10172800844612F0030F4FD111F0030F32D14DF858
:10173800044D11F0040F51F8043B0BD0A3F1013212
:101748009A4312F0803F04BF4CF8043B51F8043B25
:1017580016D100BF51F8044BA3F101329A4312F09D
:10176800803FA4F101320BD14CF8043BA24312F0A4
:10177800803F04BF51F8043B4CF8044BEAD02346A1
:101788000CF8013B13F0FF0F4FEA3323F8D15DF853
:10179800044B704711F0010F06D011F8012B0CF81B
:1017A800012B002A08BF704711F0020FBFD031F893
:1017B800022B12F0FF0F16BF2CF8022B8CF800201A
:1017C80012F47F4FB3D1704711F8012B0CF8012B9D
:1017D800002AF9D1704700BF20F0030110F0030080
:1017E800C0F1000051F8043B00F1040C4FEACC0CA6
:1017F8006FF000021CBF22FA0CF213434FF0010CE9
:101808004CEA0C2C4CEA0C4CA3EB0C0222EA030227
:1018180012EACC1204BF51F8043B0430F4D0C2F1F0
:10182800000102EA0102B2FA82F2C2F11F0200EBE1
:10183800D200704702030405060708090A0B0C0DBD
:101848000E0F101000000000000000000102030449
:1018580006070809DEADBEEFFEED4C4544204F4EAD
:09186800004C4544204F464600A7
:0C187400100000200000000000A24A0448
:040000050800010DE1
:00000001FF
